{
  "_format": "hh-sol-artifact-1",
  "contractName": "Pet2DAOProposal",
  "sourceName": "contracts/Proposal.sol",
  "abi": [
    {
      "inputs": [
        {
          "internalType": "address",
          "name": "_employeeNFT",
          "type": "address"
        }
      ],
      "stateMutability": "nonpayable",
      "type": "constructor"
    },
    {
      "anonymous": false,
      "inputs": [
        {
          "indexed": true,
          "internalType": "address",
          "name": "owner",
          "type": "address"
        },
        {
          "indexed": true,
          "internalType": "address",
          "name": "approved",
          "type": "address"
        },
        {
          "indexed": true,
          "internalType": "uint256",
          "name": "tokenId",
          "type": "uint256"
        }
      ],
      "name": "Approval",
      "type": "event"
    },
    {
      "anonymous": false,
      "inputs": [
        {
          "indexed": true,
          "internalType": "address",
          "name": "owner",
          "type": "address"
        },
        {
          "indexed": true,
          "internalType": "address",
          "name": "operator",
          "type": "address"
        },
        {
          "indexed": false,
          "internalType": "bool",
          "name": "approved",
          "type": "bool"
        }
      ],
      "name": "ApprovalForAll",
      "type": "event"
    },
    {
      "anonymous": false,
      "inputs": [
        {
          "indexed": true,
          "internalType": "address",
          "name": "previousOwner",
          "type": "address"
        },
        {
          "indexed": true,
          "internalType": "address",
          "name": "newOwner",
          "type": "address"
        }
      ],
      "name": "OwnershipTransferred",
      "type": "event"
    },
    {
      "anonymous": false,
      "inputs": [
        {
          "indexed": true,
          "internalType": "address",
          "name": "from",
          "type": "address"
        },
        {
          "indexed": true,
          "internalType": "address",
          "name": "to",
          "type": "address"
        },
        {
          "indexed": true,
          "internalType": "uint256",
          "name": "tokenId",
          "type": "uint256"
        }
      ],
      "name": "Transfer",
      "type": "event"
    },
    {
      "inputs": [
        {
          "internalType": "address",
          "name": "to",
          "type": "address"
        },
        {
          "internalType": "uint256",
          "name": "tokenId",
          "type": "uint256"
        }
      ],
      "name": "approve",
      "outputs": [],
      "stateMutability": "nonpayable",
      "type": "function"
    },
    {
      "inputs": [
        {
          "internalType": "uint256",
          "name": "index",
          "type": "uint256"
        },
        {
          "components": [
            {
              "internalType": "uint32",
              "name": "nftId",
              "type": "uint32"
            },
            {
              "internalType": "uint256",
              "name": "proposalId",
              "type": "uint256"
            },
            {
              "internalType": "uint256",
              "name": "level",
              "type": "uint256"
            },
            {
              "internalType": "bool",
              "name": "isAccepted",
              "type": "bool"
            },
            {
              "internalType": "bytes",
              "name": "signature",
              "type": "bytes"
            }
          ],
          "internalType": "struct Pet2DAOProposal.LevelVoucher[]",
          "name": "vouchers",
          "type": "tuple[]"
        },
        {
          "internalType": "bool",
          "name": "nftRequired",
          "type": "bool"
        }
      ],
      "name": "approveProposal",
      "outputs": [],
      "stateMutability": "nonpayable",
      "type": "function"
    },
    {
      "inputs": [
        {
          "internalType": "address",
          "name": "owner",
          "type": "address"
        }
      ],
      "name": "balanceOf",
      "outputs": [
        {
          "internalType": "uint256",
          "name": "",
          "type": "uint256"
        }
      ],
      "stateMutability": "view",
      "type": "function"
    },
    {
      "inputs": [
        {
          "internalType": "string",
          "name": "_contentURI",
          "type": "string"
        },
        {
          "internalType": "uint32[]",
          "name": "_approvers",
          "type": "uint32[]"
        },
        {
          "internalType": "bool",
          "name": "_isPublic",
          "type": "bool"
        }
      ],
      "name": "createProposal",
      "outputs": [],
      "stateMutability": "nonpayable",
      "type": "function"
    },
    {
      "inputs": [
        {
          "internalType": "uint256",
          "name": "index",
          "type": "uint256"
        }
      ],
      "name": "deleteProposal",
      "outputs": [],
      "stateMutability": "nonpayable",
      "type": "function"
    },
    {
      "inputs": [],
      "name": "employeeNFT",
      "outputs": [
        {
          "internalType": "contract IEmployeeNFT",
          "name": "",
          "type": "address"
        }
      ],
      "stateMutability": "view",
      "type": "function"
    },
    {
      "inputs": [
        {
          "internalType": "uint256",
          "name": "start",
          "type": "uint256"
        },
        {
          "internalType": "uint256",
          "name": "end",
          "type": "uint256"
        }
      ],
      "name": "getAllProposal",
      "outputs": [
        {
          "components": [
            {
              "internalType": "address",
              "name": "creator",
              "type": "address"
            },
            {
              "internalType": "string",
              "name": "contentURL",
              "type": "string"
            },
            {
              "internalType": "uint32[]",
              "name": "approvers",
              "type": "uint32[]"
            },
            {
              "internalType": "bool",
              "name": "isAccepted",
              "type": "bool"
            },
            {
              "internalType": "bool",
              "name": "isPublic",
              "type": "bool"
            }
          ],
          "internalType": "struct Pet2DAOProposal.Proposal[]",
          "name": "",
          "type": "tuple[]"
        }
      ],
      "stateMutability": "view",
      "type": "function"
    },
    {
      "inputs": [
        {
          "internalType": "uint256",
          "name": "tokenId",
          "type": "uint256"
        }
      ],
      "name": "getApproved",
      "outputs": [
        {
          "internalType": "address",
          "name": "",
          "type": "address"
        }
      ],
      "stateMutability": "view",
      "type": "function"
    },
    {
      "inputs": [],
      "name": "getApprovedProposalCount",
      "outputs": [
        {
          "internalType": "uint256",
          "name": "",
          "type": "uint256"
        }
      ],
      "stateMutability": "view",
      "type": "function"
    },
    {
      "inputs": [
        {
          "internalType": "uint256",
          "name": "start",
          "type": "uint256"
        },
        {
          "internalType": "uint256",
          "name": "end",
          "type": "uint256"
        }
      ],
      "name": "getApprovedProposals",
      "outputs": [
        {
          "components": [
            {
              "internalType": "address",
              "name": "creator",
              "type": "address"
            },
            {
              "internalType": "string",
              "name": "contentURL",
              "type": "string"
            },
            {
              "internalType": "uint32[]",
              "name": "approvers",
              "type": "uint32[]"
            },
            {
              "internalType": "bool",
              "name": "isAccepted",
              "type": "bool"
            },
            {
              "internalType": "bool",
              "name": "isPublic",
              "type": "bool"
            }
          ],
          "internalType": "struct Pet2DAOProposal.Proposal[]",
          "name": "",
          "type": "tuple[]"
        }
      ],
      "stateMutability": "view",
      "type": "function"
    },
    {
      "inputs": [],
      "name": "getProposalCount",
      "outputs": [
        {
          "internalType": "uint256",
          "name": "",
          "type": "uint256"
        }
      ],
      "stateMutability": "view",
      "type": "function"
    },
    {
      "inputs": [
        {
          "internalType": "address",
          "name": "owner",
          "type": "address"
        },
        {
          "internalType": "address",
          "name": "operator",
          "type": "address"
        }
      ],
      "name": "isApprovedForAll",
      "outputs": [
        {
          "internalType": "bool",
          "name": "",
          "type": "bool"
        }
      ],
      "stateMutability": "view",
      "type": "function"
    },
    {
      "inputs": [],
      "name": "name",
      "outputs": [
        {
          "internalType": "string",
          "name": "",
          "type": "string"
        }
      ],
      "stateMutability": "view",
      "type": "function"
    },
    {
      "inputs": [],
      "name": "owner",
      "outputs": [
        {
          "internalType": "address",
          "name": "",
          "type": "address"
        }
      ],
      "stateMutability": "view",
      "type": "function"
    },
    {
      "inputs": [
        {
          "internalType": "uint256",
          "name": "tokenId",
          "type": "uint256"
        }
      ],
      "name": "ownerOf",
      "outputs": [
        {
          "internalType": "address",
          "name": "",
          "type": "address"
        }
      ],
      "stateMutability": "view",
      "type": "function"
    },
    {
      "inputs": [],
      "name": "renounceOwnership",
      "outputs": [],
      "stateMutability": "nonpayable",
      "type": "function"
    },
    {
      "inputs": [
        {
          "internalType": "address",
          "name": "from",
          "type": "address"
        },
        {
          "internalType": "address",
          "name": "to",
          "type": "address"
        },
        {
          "internalType": "uint256",
          "name": "tokenId",
          "type": "uint256"
        }
      ],
      "name": "safeTransferFrom",
      "outputs": [],
      "stateMutability": "nonpayable",
      "type": "function"
    },
    {
      "inputs": [
        {
          "internalType": "address",
          "name": "from",
          "type": "address"
        },
        {
          "internalType": "address",
          "name": "to",
          "type": "address"
        },
        {
          "internalType": "uint256",
          "name": "tokenId",
          "type": "uint256"
        },
        {
          "internalType": "bytes",
          "name": "data",
          "type": "bytes"
        }
      ],
      "name": "safeTransferFrom",
      "outputs": [],
      "stateMutability": "nonpayable",
      "type": "function"
    },
    {
      "inputs": [
        {
          "internalType": "address",
          "name": "operator",
          "type": "address"
        },
        {
          "internalType": "bool",
          "name": "approved",
          "type": "bool"
        }
      ],
      "name": "setApprovalForAll",
      "outputs": [],
      "stateMutability": "nonpayable",
      "type": "function"
    },
    {
      "inputs": [
        {
          "internalType": "address",
          "name": "_employeeNFT",
          "type": "address"
        }
      ],
      "name": "setEmployeeNFT",
      "outputs": [],
      "stateMutability": "nonpayable",
      "type": "function"
    },
    {
      "inputs": [
        {
          "internalType": "bytes4",
          "name": "interfaceId",
          "type": "bytes4"
        }
      ],
      "name": "supportsInterface",
      "outputs": [
        {
          "internalType": "bool",
          "name": "",
          "type": "bool"
        }
      ],
      "stateMutability": "view",
      "type": "function"
    },
    {
      "inputs": [],
      "name": "symbol",
      "outputs": [
        {
          "internalType": "string",
          "name": "",
          "type": "string"
        }
      ],
      "stateMutability": "view",
      "type": "function"
    },
    {
      "inputs": [
        {
          "internalType": "uint256",
          "name": "tokenId",
          "type": "uint256"
        }
      ],
      "name": "tokenURI",
      "outputs": [
        {
          "internalType": "string",
          "name": "",
          "type": "string"
        }
      ],
      "stateMutability": "view",
      "type": "function"
    },
    {
      "inputs": [
        {
          "internalType": "address",
          "name": "from",
          "type": "address"
        },
        {
          "internalType": "address",
          "name": "to",
          "type": "address"
        },
        {
          "internalType": "uint256",
          "name": "tokenId",
          "type": "uint256"
        }
      ],
      "name": "transferFrom",
      "outputs": [],
      "stateMutability": "nonpayable",
      "type": "function"
    },
    {
      "inputs": [
        {
          "internalType": "address",
          "name": "newOwner",
          "type": "address"
        }
      ],
      "name": "transferOwnership",
      "outputs": [],
      "stateMutability": "nonpayable",
      "type": "function"
    }
  ],
  "bytecode": "0x6101406040523480156200001257600080fd5b5060405162003574380380620035748339810160408190526200003591620002b6565b6040518060400160405280600d81526020016c2632bb32b616ab37bab1b432b960991b815250604051806040016040528060018152602001603160f81b8152506040518060400160405280600c81526020016b115b5c1b1bde59594813919560a21b81525060405180604001604052806008815260200167456d706c6f79656560c01b815250620000d5620000cf620001bc60201b60201c565b620001c0565b8151620000ea90600190602085019062000210565b5080516200010090600290602084019062000210565b5050825160208085019190912083518483012060e08290526101008190524660a0818152604080517f8b73c3c69bb8fe3d512ecc4cf759cc79239f7b179b0ffacaa9a75d522b39400f81880181905281830187905260608201869052608082019490945230818401528151808203909301835260c0019052805194019390932091935091906080523060c052610120525050600880546001600160a01b0319166001600160a01b03949094169390931790925550620003259050565b3390565b600080546001600160a01b038381166001600160a01b0319831681178455604051919092169283917f8be0079c531659141344cd1fd0a4f28419497f9722a3daafe3b4186f6b6457e09190a35050565b8280546200021e90620002e8565b90600052602060002090601f0160209004810192826200024257600085556200028d565b82601f106200025d57805160ff19168380011785556200028d565b828001600101855582156200028d579182015b828111156200028d57825182559160200191906001019062000270565b506200029b9291506200029f565b5090565b5b808211156200029b5760008155600101620002a0565b600060208284031215620002c957600080fd5b81516001600160a01b0381168114620002e157600080fd5b9392505050565b600181811c90821680620002fd57607f821691505b602082108114156200031f57634e487b7160e01b600052602260045260246000fd5b50919050565b60805160a05160c05160e05161010051610120516131ff620003756000396000612301015260006123500152600061232b01526000612284015260006122ae015260006122d801526131ff6000f3fe608060405234801561001057600080fd5b50600436106101735760003560e01c80638259d553116100de578063bf98f1f511610097578063c87b56dd11610071578063c87b56dd14610325578063d07082a514610338578063e985e9c51461034b578063f2fde38b1461038757600080fd5b8063bf98f1f514610302578063c08cc02d14610315578063c0c5b8ae1461031d57600080fd5b80638259d5531461029d578063857690d6146102b05780638da5cb5b146102c357806395d89b41146102d4578063a22cb465146102dc578063b88d4fde146102ef57600080fd5b806342842e0e1161013057806342842e0e146102285780636352211e1461023b57806367d765db1461024e57806370a0823114610261578063715018a6146102825780637d48d7101461028a57600080fd5b806301ffc9a71461017857806306fdde03146101a0578063081812fc146101b5578063095ea7b3146101e057806323b872dd146101f5578063262feb9e14610208575b600080fd5b61018b61018636600461298b565b61039a565b60405190151581526020015b60405180910390f35b6101a86103ab565b6040516101979190612a00565b6101c86101c3366004612a13565b61043d565b6040516001600160a01b039091168152602001610197565b6101f36101ee366004612a41565b610464565b005b6101f3610203366004612a6d565b61057f565b61021b610216366004612aae565b6105b0565b6040516101979190612ad0565b6101f3610236366004612a6d565b6107f3565b6101c8610249366004612a13565b61080e565b6101f361025c366004612c11565b61086e565b61027461026f366004612c70565b610dfc565b604051908152602001610197565b6101f3610e82565b6101f3610298366004612d19565b610e96565b6101f36102ab366004612a13565b610fa6565b6101f36102be366004612c70565b6111c2565b6000546001600160a01b03166101c8565b6101a8611294565b6101f36102ea366004612d8d565b6112a3565b6101f36102fd366004612dc6565b6112b2565b61021b610310366004612aae565b6112ea565b600954610274565b600a54610274565b6101a8610333366004612a13565b611542565b6008546101c8906001600160a01b031681565b61018b610359366004612e46565b6001600160a01b03918216600090815260066020908152604080832093909416825291909152205460ff1690565b6101f3610395366004612c70565b61154d565b60006103a5826115c6565b92915050565b6060600180546103ba90612e74565b80601f01602080910402602001604051908101604052809291908181526020018280546103e690612e74565b80156104335780601f1061040857610100808354040283529160200191610433565b820191906000526020600020905b81548152906001019060200180831161041657829003601f168201915b5050505050905090565b600061044882611616565b506000908152600560205260409020546001600160a01b031690565b600061046f8261080e565b9050806001600160a01b0316836001600160a01b031614156104e25760405162461bcd60e51b815260206004820152602160248201527f4552433732313a20617070726f76616c20746f2063757272656e74206f776e656044820152603960f91b60648201526084015b60405180910390fd5b336001600160a01b03821614806104fe57506104fe8133610359565b6105705760405162461bcd60e51b815260206004820152603d60248201527f4552433732313a20617070726f76652063616c6c6572206973206e6f7420746f60448201527f6b656e206f776e6572206f7220617070726f76656420666f7220616c6c00000060648201526084016104d9565b61057a8383611675565b505050565b61058933826116e3565b6105a55760405162461bcd60e51b81526004016104d990612eaf565b61057a838383611762565b6009546060908211156105d55760405162461bcd60e51b81526004016104d990612efc565b60006105e18484612f39565b67ffffffffffffffff8111156105f9576105f9612c8d565b60405190808252806020026020018201604052801561063257816020015b61061f6126d3565b8152602001906001900390816106175790505b509050835b838110156107eb576009818154811061065257610652612f50565b60009182526020918290206040805160a0810190915260049092020180546001600160a01b03168252600181018054929391929184019161069290612e74565b80601f01602080910402602001604051908101604052809291908181526020018280546106be90612e74565b801561070b5780601f106106e05761010080835404028352916020019161070b565b820191906000526020600020905b8154815290600101906020018083116106ee57829003601f168201915b505050505081526020016002820180548060200260200160405190810160405280929190818152602001828054801561078f57602002820191906000526020600020906000905b82829054906101000a900463ffffffff1663ffffffff16815260200190600401906020826003010492830192600103820291508084116107525790505b50505091835250506003919091015460ff8082161515602084015261010090910416151560409091015282518390839081106107cd576107cd612f50565b602002602001018190525080806107e390612f66565b915050610637565b509392505050565b61057a838383604051806020016040528060008152506112b2565b6000818152600360205260408120546001600160a01b0316806103a55760405162461bcd60e51b8152602060048201526018602482015277115490cdcc8c4e881a5b9d985b1a59081d1bdad95b88125160421b60448201526064016104d9565b6009848154811061088157610881612f50565b600091825260209091206003600490920201015460ff16156108ef5760405162461bcd60e51b815260206004820152602160248201527f546869732070726f706f73616c20697320616c726561647920616363657074656044820152601960fa1b60648201526084016104d9565b60006009858154811061090457610904612f50565b60009182526020918290206040805160a0810190915260049092020180546001600160a01b03168252600181018054929391929184019161094490612e74565b80601f016020809104026020016040519081016040528092919081815260200182805461097090612e74565b80156109bd5780601f10610992576101008083540402835291602001916109bd565b820191906000526020600020905b8154815290600101906020018083116109a057829003601f168201915b5050505050815260200160028201805480602002602001604051908101604052809291908181526020018280548015610a4157602002820191906000526020600020906000905b82829054906101000a900463ffffffff1663ffffffff1681526020019060040190602082600301049283019260010382029150808411610a045790505b50505091835250506003919091015460ff8082161515602084015261010090910416151560409182015281015190915060005b60018251610a829190612f39565b811015610df3576000610ab7878784818110610aa057610aa0612f50565b9050602002810190610ab29190612f81565b6117c4565b6008549091506001600160a01b0316636352211e888885818110610add57610add612f50565b9050602002810190610aef9190612f81565b610afd906020810190612fa1565b63ffffffff166040518263ffffffff1660e01b8152600401610b2191815260200190565b602060405180830381865afa158015610b3e573d6000803e3d6000fd5b505050506040513d601f19601f82011682018060405250810190610b629190612fc7565b6001600160a01b0316816001600160a01b0316141580610bd85750828281518110610b8f57610b8f612f50565b602002602001015163ffffffff16878784818110610baf57610baf612f50565b9050602002810190610bc19190612f81565b610bcf906020810190612fa1565b63ffffffff1614155b15610c255760405162461bcd60e51b815260206004820152601760248201527f496e76616c696420566f7563686572204164647265737300000000000000000060448201526064016104d9565b868683818110610c3757610c37612f50565b9050602002810190610c499190612f81565b602001358814610c915760405162461bcd60e51b8152602060048201526013602482015272125b9d985b1a5908141c9bdc1bdcd85b081259606a1b60448201526064016104d9565b868683818110610ca357610ca3612f50565b9050602002810190610cb59190612f81565b604001358214610cf75760405162461bcd60e51b815260206004820152600d60248201526c125b9d985b1a590813195d995b609a1b60448201526064016104d9565b60018351610d059190612f39565b8214610d9157868683818110610d1d57610d1d612f50565b9050602002810190610d2f9190612f81565b610d40906080810190606001612fe4565b610d8c5760405162461bcd60e51b815260206004820152601c60248201527f50726f706f73616c20697320616c72656164792072656a65637465640000000060448201526064016104d9565b610de0565b600160608501819052600a805491820181556000527fc65a7bb8d6351c1cf70c95a316cc6a92839c986682d98bc35f958f4883f9d2a8018890558415610de057610de088338660200151611824565b5080610deb81612f66565b915050610a74565b50505050505050565b60006001600160a01b038216610e665760405162461bcd60e51b815260206004820152602960248201527f4552433732313a2061646472657373207a65726f206973206e6f7420612076616044820152683634b21037bbb732b960b91b60648201526084016104d9565b506001600160a01b031660009081526004602052604090205490565b610e8a611838565b610e946000611892565b565b60096040518060a00160405280336001600160a01b031681526020018681526020018585808060200260200160405190810160405280939291908181526020018383602002808284376000920182905250938552505050602080830182905285151560409093019290925283546001808201865594825290829020835160049092020180546001600160a01b0319166001600160a01b0390921691909117815582820151805193949193610f529392850192919091019061270f565b5060408201518051610f6e916002840191602090910190612793565b5060608201516003909101805460809093015115156101000261ff00199215159290921661ffff199093169290921717905550505050565b600854604051630935e01b60e21b81523360048201526001600160a01b03909116906324d7806c90602401602060405180830381865afa158015610fee573d6000803e3d6000fd5b505050506040513d601f19601f820116820180604052508101906110129190613001565b6110565760405162461bcd60e51b81526020600482015260156024820152742932b9ba3934b1ba32b2103a379030b236b4b7399760591b60448201526064016104d9565b60095481106110775760405162461bcd60e51b81526004016104d990612efc565b6009805461108790600190612f39565b8154811061109757611097612f50565b9060005260206000209060040201600982815481106110b8576110b8612f50565b60009182526020909120825460049092020180546001600160a01b0319166001600160a01b0390921691909117815560018083018054918301916110fb90612e74565b61110692919061283d565b506002828101805461111b92840191906128b8565b506003918201805491909201805460ff19811660ff93841615159081178355935461ffff1990911661ff00199094169390931761010093849004909216151590920217905560098054806111715761117161301e565b60008281526020812060046000199093019283020180546001600160a01b0319168155906111a26001830182612905565b6111b060028301600061293f565b50600301805461ffff19169055905550565b600854604051630935e01b60e21b81523360048201526001600160a01b03909116906324d7806c90602401602060405180830381865afa15801561120a573d6000803e3d6000fd5b505050506040513d601f19601f8201168201806040525081019061122e9190613001565b6112725760405162461bcd60e51b81526020600482015260156024820152742932b9ba3934b1ba32b2103a379030b236b4b7399760591b60448201526064016104d9565b600880546001600160a01b0319166001600160a01b0392909216919091179055565b6060600280546103ba90612e74565b6112ae3383836118e2565b5050565b6112bc33836116e3565b6112d85760405162461bcd60e51b81526004016104d990612eaf565b6112e4848484846119b1565b50505050565b600a5460609082111561130f5760405162461bcd60e51b81526004016104d990612efc565b600061131b8484612f39565b67ffffffffffffffff81111561133357611333612c8d565b60405190808252806020026020018201604052801561136c57816020015b6113596126d3565b8152602001906001900390816113515790505b509050835b838110156107eb576009600a828154811061138e5761138e612f50565b9060005260206000200154815481106113a9576113a9612f50565b60009182526020918290206040805160a0810190915260049092020180546001600160a01b0316825260018101805492939192918401916113e990612e74565b80601f016020809104026020016040519081016040528092919081815260200182805461141590612e74565b80156114625780601f1061143757610100808354040283529160200191611462565b820191906000526020600020905b81548152906001019060200180831161144557829003601f168201915b50505050508152602001600282018054806020026020016040519081016040528092919081815260200182805480156114e657602002820191906000526020600020906000905b82829054906101000a900463ffffffff1663ffffffff16815260200190600401906020826003010492830192600103820291508084116114a95790505b50505091835250506003919091015460ff80821615156020840152610100909104161515604090910152825183908390811061152457611524612f50565b6020026020010181905250808061153a90612f66565b915050611371565b60606103a5826119e4565b611555611838565b6001600160a01b0381166115ba5760405162461bcd60e51b815260206004820152602660248201527f4f776e61626c653a206e6577206f776e657220697320746865207a65726f206160448201526564647265737360d01b60648201526084016104d9565b6115c381611892565b50565b60006001600160e01b031982166380ac58cd60e01b14806115f757506001600160e01b03198216635b5e139f60e01b145b806103a557506301ffc9a760e01b6001600160e01b03198316146103a5565b6000818152600360205260409020546001600160a01b03166115c35760405162461bcd60e51b8152602060048201526018602482015277115490cdcc8c4e881a5b9d985b1a59081d1bdad95b88125160421b60448201526064016104d9565b600081815260056020526040902080546001600160a01b0319166001600160a01b03841690811790915581906116aa8261080e565b6001600160a01b03167f8c5be1e5ebec7d5bd14f71427d1e84f3dd0314c0f7b2291e5b200ac8c7c3b92560405160405180910390a45050565b6000806116ef8361080e565b9050806001600160a01b0316846001600160a01b0316148061173657506001600160a01b0380821660009081526006602090815260408083209388168352929052205460ff165b8061175a5750836001600160a01b031661174f8461043d565b6001600160a01b0316145b949350505050565b6001600160a01b038316156117b95760405162461bcd60e51b815260206004820152601c60248201527f596f752063616e2774207472616e736665722074686973204e46542e0000000060448201526064016104d9565b61057a838383611aed565b6000806117d083611c5e565b905061181d816117e36080860186613034565b8080601f016020809104026020016040519081016040528093929190818152602001838380828437600092019190915250611cf892505050565b9392505050565b61182e8284611d14565b61057a8382611d2e565b6000546001600160a01b03163314610e945760405162461bcd60e51b815260206004820181905260248201527f4f776e61626c653a2063616c6c6572206973206e6f7420746865206f776e657260448201526064016104d9565b600080546001600160a01b038381166001600160a01b0319831681178455604051919092169283917f8be0079c531659141344cd1fd0a4f28419497f9722a3daafe3b4186f6b6457e09190a35050565b816001600160a01b0316836001600160a01b031614156119445760405162461bcd60e51b815260206004820152601960248201527f4552433732313a20617070726f766520746f2063616c6c65720000000000000060448201526064016104d9565b6001600160a01b03838116600081815260066020908152604080832094871680845294825291829020805460ff191686151590811790915591519182527f17307eab39ab6107e8899845ad3d59bd9653f200f220920489ca2b5937696c31910160405180910390a3505050565b6119bc848484611762565b6119c884848484611dc8565b6112e45760405162461bcd60e51b81526004016104d99061307b565b60606119ef82611616565b60008281526007602052604081208054611a0890612e74565b80601f0160208091040260200160405190810160405280929190818152602001828054611a3490612e74565b8015611a815780601f10611a5657610100808354040283529160200191611a81565b820191906000526020600020905b815481529060010190602001808311611a6457829003601f168201915b505050505090506000611a9f60408051602081019091526000815290565b9050805160001415611ab2575092915050565b815115611ae4578082604051602001611acc9291906130cd565b60405160208183030381529060405292505050919050565b61175a84611ec6565b826001600160a01b0316611b008261080e565b6001600160a01b031614611b265760405162461bcd60e51b81526004016104d9906130fc565b6001600160a01b038216611b885760405162461bcd60e51b8152602060048201526024808201527f4552433732313a207472616e7366657220746f20746865207a65726f206164646044820152637265737360e01b60648201526084016104d9565b611b958383836001611f39565b826001600160a01b0316611ba88261080e565b6001600160a01b031614611bce5760405162461bcd60e51b81526004016104d9906130fc565b600081815260056020908152604080832080546001600160a01b03199081169091556001600160a01b0387811680865260048552838620805460001901905590871680865283862080546001019055868652600390945282852080549092168417909155905184937fddf252ad1be2c89b69c2b068fc378daa952ba7f163c4a11628f55a4df523b3ef91a4505050565b60006103a57f2a9cfc89eda85373a652fb3f48323cf97219b47da0aafbad66606342bf12baaa611c916020850185612fa1565b60208501356040860135611cab6080880160608901612fe4565b60408051602081019690965263ffffffff9094169385019390935260608401919091526080830152151560a082015260c00160405160208183030381529060405280519060200120611f45565b6000806000611d078585611f93565b915091506107eb81611fd9565b6112ae828260405180602001604052806000815250612127565b6000828152600360205260409020546001600160a01b0316611da95760405162461bcd60e51b815260206004820152602e60248201527f45524337323155524953746f726167653a2055524920736574206f66206e6f6e60448201526d32bc34b9ba32b73a103a37b5b2b760911b60648201526084016104d9565b6000828152600760209081526040909120825161057a9284019061270f565b60006001600160a01b0384163b15611ebb57604051630a85bd0160e11b81526001600160a01b0385169063150b7a0290611e0c903390899088908890600401613141565b6020604051808303816000875af1925050508015611e47575060408051601f3d908101601f19168201909252611e449181019061317e565b60015b611ea1573d808015611e75576040519150601f19603f3d011682016040523d82523d6000602084013e611e7a565b606091505b508051611e995760405162461bcd60e51b81526004016104d99061307b565b805181602001fd5b6001600160e01b031916630a85bd0160e11b14905061175a565b506001949350505050565b6060611ed182611616565b6000611ee860408051602081019091526000815290565b90506000815111611f08576040518060200160405280600081525061181d565b80611f128461215a565b604051602001611f239291906130cd565b6040516020818303038152906040529392505050565b6112e4848484846121ef565b60006103a5611f52612277565b8360405161190160f01b6020820152602281018390526042810182905260009060620160405160208183030381529060405280519060200120905092915050565b600080825160411415611fca5760208301516040840151606085015160001a611fbe8782858561239e565b94509450505050611fd2565b506000905060025b9250929050565b6000816004811115611fed57611fed61319b565b1415611ff65750565b600181600481111561200a5761200a61319b565b14156120585760405162461bcd60e51b815260206004820152601860248201527f45434453413a20696e76616c6964207369676e6174757265000000000000000060448201526064016104d9565b600281600481111561206c5761206c61319b565b14156120ba5760405162461bcd60e51b815260206004820152601f60248201527f45434453413a20696e76616c6964207369676e6174757265206c656e6774680060448201526064016104d9565b60038160048111156120ce576120ce61319b565b14156115c35760405162461bcd60e51b815260206004820152602260248201527f45434453413a20696e76616c6964207369676e6174757265202773272076616c604482015261756560f01b60648201526084016104d9565b6121318383612462565b61213e6000848484611dc8565b61057a5760405162461bcd60e51b81526004016104d99061307b565b60606000612167836125fb565b600101905060008167ffffffffffffffff81111561218757612187612c8d565b6040519080825280601f01601f1916602001820160405280156121b1576020820181803683370190505b5090508181016020015b600019016f181899199a1a9b1b9c1cb0b131b232b360811b600a86061a8153600a85049450846121ea576107eb565b6121bb565b60018111156112e4576001600160a01b03841615612235576001600160a01b0384166000908152600460205260408120805483929061222f908490612f39565b90915550505b6001600160a01b038316156112e4576001600160a01b0383166000908152600460205260408120805483929061226c9084906131b1565b909155505050505050565b6000306001600160a01b037f0000000000000000000000000000000000000000000000000000000000000000161480156122d057507f000000000000000000000000000000000000000000000000000000000000000046145b156122fa57507f000000000000000000000000000000000000000000000000000000000000000090565b50604080517f00000000000000000000000000000000000000000000000000000000000000006020808301919091527f0000000000000000000000000000000000000000000000000000000000000000828401527f000000000000000000000000000000000000000000000000000000000000000060608301524660808301523060a0808401919091528351808403909101815260c0909201909252805191012090565b6000807f7fffffffffffffffffffffffffffffff5d576e7357a4501ddfe92f46681b20a08311156123d55750600090506003612459565b6040805160008082526020820180845289905260ff881692820192909252606081018690526080810185905260019060a0016020604051602081039080840390855afa158015612429573d6000803e3d6000fd5b5050604051601f1901519150506001600160a01b03811661245257600060019250925050612459565b9150600090505b94509492505050565b6001600160a01b0382166124b85760405162461bcd60e51b815260206004820181905260248201527f4552433732313a206d696e7420746f20746865207a65726f206164647265737360448201526064016104d9565b6000818152600360205260409020546001600160a01b03161561251d5760405162461bcd60e51b815260206004820152601c60248201527f4552433732313a20746f6b656e20616c7265616479206d696e7465640000000060448201526064016104d9565b61252b600083836001611f39565b6000818152600360205260409020546001600160a01b0316156125905760405162461bcd60e51b815260206004820152601c60248201527f4552433732313a20746f6b656e20616c7265616479206d696e7465640000000060448201526064016104d9565b6001600160a01b038216600081815260046020908152604080832080546001019055848352600390915280822080546001600160a01b0319168417905551839291907fddf252ad1be2c89b69c2b068fc378daa952ba7f163c4a11628f55a4df523b3ef908290a45050565b60008072184f03e93ff9f4daa797ed6e38ed64bf6a1f0160401b831061263a5772184f03e93ff9f4daa797ed6e38ed64bf6a1f0160401b830492506040015b6d04ee2d6d415b85acef81000000008310612666576d04ee2d6d415b85acef8100000000830492506020015b662386f26fc10000831061268457662386f26fc10000830492506010015b6305f5e100831061269c576305f5e100830492506008015b61271083106126b057612710830492506004015b606483106126c2576064830492506002015b600a83106103a55760010192915050565b6040518060a0016040528060006001600160a01b0316815260200160608152602001606081526020016000151581526020016000151581525090565b82805461271b90612e74565b90600052602060002090601f01602090048101928261273d5760008555612783565b82601f1061275657805160ff1916838001178555612783565b82800160010185558215612783579182015b82811115612783578251825591602001919060010190612768565b5061278f929150612960565b5090565b828054828255906000526020600020906007016008900481019282156127835791602002820160005b8382111561280057835183826101000a81548163ffffffff021916908363ffffffff16021790555092602001926004016020816003010492830192600103026127bc565b80156128305782816101000a81549063ffffffff0219169055600401602081600301049283019260010302612800565b505061278f929150612960565b82805461284990612e74565b90600052602060002090601f01602090048101928261286b5760008555612783565b82601f1061287c5780548555612783565b8280016001018555821561278357600052602060002091601f016020900482015b8281111561278357825482559160010191906001019061289d565b82805482825590600052602060002090600701600890048101928215612783576000526020600020916007016008900482018281111561278357825482559160010191906001019061289d565b50805461291190612e74565b6000825580601f10612921575050565b601f0160209004906000526020600020908101906115c39190612960565b5080546000825560070160089004906000526020600020908101906115c391905b5b8082111561278f5760008155600101612961565b6001600160e01b0319811681146115c357600080fd5b60006020828403121561299d57600080fd5b813561181d81612975565b60005b838110156129c35781810151838201526020016129ab565b838111156112e45750506000910152565b600081518084526129ec8160208601602086016129a8565b601f01601f19169290920160200192915050565b60208152600061181d60208301846129d4565b600060208284031215612a2557600080fd5b5035919050565b6001600160a01b03811681146115c357600080fd5b60008060408385031215612a5457600080fd5b8235612a5f81612a2c565b946020939093013593505050565b600080600060608486031215612a8257600080fd5b8335612a8d81612a2c565b92506020840135612a9d81612a2c565b929592945050506040919091013590565b60008060408385031215612ac157600080fd5b50508035926020909101359150565b60006020808301818452808551808352604092508286019150828160051b8701018488016000805b84811015612baf57898403603f19018652825180516001600160a01b031685528881015160a08a870181905290612b31828801826129d4565b838b0151888203898d01528051808352908d019350869250908c01905b80831015612b7457835163ffffffff168252928c019260019290920191908c0190612b4e565b5060609250828401519150612b8c8389018315159052565b608093840151151597909301969096525095880195935091870191600101612af8565b50919998505050505050505050565b60008083601f840112612bd057600080fd5b50813567ffffffffffffffff811115612be857600080fd5b6020830191508360208260051b8501011115611fd257600080fd5b80151581146115c357600080fd5b60008060008060608587031215612c2757600080fd5b84359350602085013567ffffffffffffffff811115612c4557600080fd5b612c5187828801612bbe565b9094509250506040850135612c6581612c03565b939692955090935050565b600060208284031215612c8257600080fd5b813561181d81612a2c565b634e487b7160e01b600052604160045260246000fd5b600067ffffffffffffffff80841115612cbe57612cbe612c8d565b604051601f8501601f19908116603f01168101908282118183101715612ce657612ce6612c8d565b81604052809350858152868686011115612cff57600080fd5b858560208301376000602087830101525050509392505050565b60008060008060608587031215612d2f57600080fd5b843567ffffffffffffffff80821115612d4757600080fd5b818701915087601f830112612d5b57600080fd5b612d6a88833560208501612ca3565b95506020870135915080821115612d8057600080fd5b50612c5187828801612bbe565b60008060408385031215612da057600080fd5b8235612dab81612a2c565b91506020830135612dbb81612c03565b809150509250929050565b60008060008060808587031215612ddc57600080fd5b8435612de781612a2c565b93506020850135612df781612a2c565b925060408501359150606085013567ffffffffffffffff811115612e1a57600080fd5b8501601f81018713612e2b57600080fd5b612e3a87823560208401612ca3565b91505092959194509250565b60008060408385031215612e5957600080fd5b8235612e6481612a2c565b91506020830135612dbb81612a2c565b600181811c90821680612e8857607f821691505b60208210811415612ea957634e487b7160e01b600052602260045260246000fd5b50919050565b6020808252602d908201527f4552433732313a2063616c6c6572206973206e6f7420746f6b656e206f776e6560408201526c1c881bdc88185c1c1c9bdd9959609a1b606082015260800190565b6020808252600d908201526c092dcecc2d8d2c84092dcc8caf609b1b604082015260600190565b634e487b7160e01b600052601160045260246000fd5b600082821015612f4b57612f4b612f23565b500390565b634e487b7160e01b600052603260045260246000fd5b6000600019821415612f7a57612f7a612f23565b5060010190565b60008235609e19833603018112612f9757600080fd5b9190910192915050565b600060208284031215612fb357600080fd5b813563ffffffff8116811461181d57600080fd5b600060208284031215612fd957600080fd5b815161181d81612a2c565b600060208284031215612ff657600080fd5b813561181d81612c03565b60006020828403121561301357600080fd5b815161181d81612c03565b634e487b7160e01b600052603160045260246000fd5b6000808335601e1984360301811261304b57600080fd5b83018035915067ffffffffffffffff82111561306657600080fd5b602001915036819003821315611fd257600080fd5b60208082526032908201527f4552433732313a207472616e7366657220746f206e6f6e20455243373231526560408201527131b2b4bb32b91034b6b83632b6b2b73a32b960711b606082015260800190565b600083516130df8184602088016129a8565b8351908301906130f38183602088016129a8565b01949350505050565b60208082526025908201527f4552433732313a207472616e736665722066726f6d20696e636f72726563742060408201526437bbb732b960d91b606082015260800190565b6001600160a01b0385811682528416602082015260408101839052608060608201819052600090613174908301846129d4565b9695505050505050565b60006020828403121561319057600080fd5b815161181d81612975565b634e487b7160e01b600052602160045260246000fd5b600082198211156131c4576131c4612f23565b50019056fea2646970667358221220785b40415f0fbff849fe1e2a7a2c7471cb30b86b29318d291cde3d374f4b83ea64736f6c634300080b0033",
  "linkReferences": {},
  "deployedLinkReferences": {}
}