{
  "_format": "hh-sol-artifact-1",
  "contractName": "EmployeeNFT",
  "sourceName": "contracts/EmployeeNFT.sol",
  "abi": [
    {
      "inputs": [
        {
          "internalType": "string",
          "name": "name",
          "type": "string"
        },
        {
          "internalType": "string",
          "name": "symbol",
          "type": "string"
        }
      ],
      "stateMutability": "nonpayable",
      "type": "constructor"
    },
    {
      "anonymous": false,
      "inputs": [
        {
          "indexed": true,
          "internalType": "address",
          "name": "owner",
          "type": "address"
        },
        {
          "indexed": true,
          "internalType": "address",
          "name": "approved",
          "type": "address"
        },
        {
          "indexed": true,
          "internalType": "uint256",
          "name": "tokenId",
          "type": "uint256"
        }
      ],
      "name": "Approval",
      "type": "event"
    },
    {
      "anonymous": false,
      "inputs": [
        {
          "indexed": true,
          "internalType": "address",
          "name": "owner",
          "type": "address"
        },
        {
          "indexed": true,
          "internalType": "address",
          "name": "operator",
          "type": "address"
        },
        {
          "indexed": false,
          "internalType": "bool",
          "name": "approved",
          "type": "bool"
        }
      ],
      "name": "ApprovalForAll",
      "type": "event"
    },
    {
      "anonymous": false,
      "inputs": [
        {
          "indexed": true,
          "internalType": "address",
          "name": "previousOwner",
          "type": "address"
        },
        {
          "indexed": true,
          "internalType": "address",
          "name": "newOwner",
          "type": "address"
        }
      ],
      "name": "OwnershipTransferred",
      "type": "event"
    },
    {
      "anonymous": false,
      "inputs": [
        {
          "indexed": true,
          "internalType": "bytes32",
          "name": "role",
          "type": "bytes32"
        },
        {
          "indexed": true,
          "internalType": "bytes32",
          "name": "previousAdminRole",
          "type": "bytes32"
        },
        {
          "indexed": true,
          "internalType": "bytes32",
          "name": "newAdminRole",
          "type": "bytes32"
        }
      ],
      "name": "RoleAdminChanged",
      "type": "event"
    },
    {
      "anonymous": false,
      "inputs": [
        {
          "indexed": true,
          "internalType": "bytes32",
          "name": "role",
          "type": "bytes32"
        },
        {
          "indexed": true,
          "internalType": "address",
          "name": "account",
          "type": "address"
        },
        {
          "indexed": true,
          "internalType": "address",
          "name": "sender",
          "type": "address"
        }
      ],
      "name": "RoleGranted",
      "type": "event"
    },
    {
      "anonymous": false,
      "inputs": [
        {
          "indexed": true,
          "internalType": "bytes32",
          "name": "role",
          "type": "bytes32"
        },
        {
          "indexed": true,
          "internalType": "address",
          "name": "account",
          "type": "address"
        },
        {
          "indexed": true,
          "internalType": "address",
          "name": "sender",
          "type": "address"
        }
      ],
      "name": "RoleRevoked",
      "type": "event"
    },
    {
      "anonymous": false,
      "inputs": [
        {
          "indexed": true,
          "internalType": "address",
          "name": "from",
          "type": "address"
        },
        {
          "indexed": true,
          "internalType": "address",
          "name": "to",
          "type": "address"
        },
        {
          "indexed": true,
          "internalType": "uint256",
          "name": "tokenId",
          "type": "uint256"
        }
      ],
      "name": "Transfer",
      "type": "event"
    },
    {
      "inputs": [],
      "name": "DEFAULT_ADMIN_ROLE",
      "outputs": [
        {
          "internalType": "bytes32",
          "name": "",
          "type": "bytes32"
        }
      ],
      "stateMutability": "view",
      "type": "function"
    },
    {
      "inputs": [
        {
          "internalType": "address",
          "name": "account",
          "type": "address"
        }
      ],
      "name": "addAdmin",
      "outputs": [],
      "stateMutability": "nonpayable",
      "type": "function"
    },
    {
      "inputs": [
        {
          "internalType": "address",
          "name": "to",
          "type": "address"
        },
        {
          "internalType": "uint256",
          "name": "tokenId",
          "type": "uint256"
        }
      ],
      "name": "approve",
      "outputs": [],
      "stateMutability": "nonpayable",
      "type": "function"
    },
    {
      "inputs": [
        {
          "internalType": "address",
          "name": "owner",
          "type": "address"
        }
      ],
      "name": "balanceOf",
      "outputs": [
        {
          "internalType": "uint256",
          "name": "",
          "type": "uint256"
        }
      ],
      "stateMutability": "view",
      "type": "function"
    },
    {
      "inputs": [
        {
          "internalType": "uint256",
          "name": "tokenId",
          "type": "uint256"
        }
      ],
      "name": "burnToken",
      "outputs": [],
      "stateMutability": "nonpayable",
      "type": "function"
    },
    {
      "inputs": [
        {
          "internalType": "uint256",
          "name": "tokenId",
          "type": "uint256"
        }
      ],
      "name": "getApproved",
      "outputs": [
        {
          "internalType": "address",
          "name": "",
          "type": "address"
        }
      ],
      "stateMutability": "view",
      "type": "function"
    },
    {
      "inputs": [
        {
          "internalType": "bytes32",
          "name": "role",
          "type": "bytes32"
        }
      ],
      "name": "getRoleAdmin",
      "outputs": [
        {
          "internalType": "bytes32",
          "name": "",
          "type": "bytes32"
        }
      ],
      "stateMutability": "view",
      "type": "function"
    },
    {
      "inputs": [
        {
          "internalType": "bytes32",
          "name": "role",
          "type": "bytes32"
        },
        {
          "internalType": "uint256",
          "name": "index",
          "type": "uint256"
        }
      ],
      "name": "getRoleMember",
      "outputs": [
        {
          "internalType": "address",
          "name": "",
          "type": "address"
        }
      ],
      "stateMutability": "view",
      "type": "function"
    },
    {
      "inputs": [
        {
          "internalType": "bytes32",
          "name": "role",
          "type": "bytes32"
        }
      ],
      "name": "getRoleMemberCount",
      "outputs": [
        {
          "internalType": "uint256",
          "name": "",
          "type": "uint256"
        }
      ],
      "stateMutability": "view",
      "type": "function"
    },
    {
      "inputs": [],
      "name": "getTotalTokenCount",
      "outputs": [
        {
          "internalType": "uint256",
          "name": "",
          "type": "uint256"
        }
      ],
      "stateMutability": "view",
      "type": "function"
    },
    {
      "inputs": [
        {
          "internalType": "bytes32",
          "name": "role",
          "type": "bytes32"
        },
        {
          "internalType": "address",
          "name": "account",
          "type": "address"
        }
      ],
      "name": "grantRole",
      "outputs": [],
      "stateMutability": "nonpayable",
      "type": "function"
    },
    {
      "inputs": [
        {
          "internalType": "bytes32",
          "name": "role",
          "type": "bytes32"
        },
        {
          "internalType": "address",
          "name": "account",
          "type": "address"
        }
      ],
      "name": "hasRole",
      "outputs": [
        {
          "internalType": "bool",
          "name": "",
          "type": "bool"
        }
      ],
      "stateMutability": "view",
      "type": "function"
    },
    {
      "inputs": [
        {
          "internalType": "address",
          "name": "account",
          "type": "address"
        }
      ],
      "name": "isAdmin",
      "outputs": [
        {
          "internalType": "bool",
          "name": "",
          "type": "bool"
        }
      ],
      "stateMutability": "view",
      "type": "function"
    },
    {
      "inputs": [
        {
          "internalType": "address",
          "name": "owner",
          "type": "address"
        },
        {
          "internalType": "address",
          "name": "operator",
          "type": "address"
        }
      ],
      "name": "isApprovedForAll",
      "outputs": [
        {
          "internalType": "bool",
          "name": "",
          "type": "bool"
        }
      ],
      "stateMutability": "view",
      "type": "function"
    },
    {
      "inputs": [
        {
          "internalType": "address",
          "name": "to",
          "type": "address"
        },
        {
          "internalType": "uint32",
          "name": "_tokenId",
          "type": "uint32"
        },
        {
          "internalType": "string",
          "name": "_tokenURI",
          "type": "string"
        }
      ],
      "name": "mint",
      "outputs": [],
      "stateMutability": "nonpayable",
      "type": "function"
    },
    {
      "inputs": [],
      "name": "name",
      "outputs": [
        {
          "internalType": "string",
          "name": "",
          "type": "string"
        }
      ],
      "stateMutability": "view",
      "type": "function"
    },
    {
      "inputs": [],
      "name": "owner",
      "outputs": [
        {
          "internalType": "address",
          "name": "",
          "type": "address"
        }
      ],
      "stateMutability": "view",
      "type": "function"
    },
    {
      "inputs": [
        {
          "internalType": "uint256",
          "name": "tokenId",
          "type": "uint256"
        }
      ],
      "name": "ownerOf",
      "outputs": [
        {
          "internalType": "address",
          "name": "",
          "type": "address"
        }
      ],
      "stateMutability": "view",
      "type": "function"
    },
    {
      "inputs": [],
      "name": "renounceAdminRole",
      "outputs": [],
      "stateMutability": "nonpayable",
      "type": "function"
    },
    {
      "inputs": [],
      "name": "renounceOwnership",
      "outputs": [],
      "stateMutability": "nonpayable",
      "type": "function"
    },
    {
      "inputs": [
        {
          "internalType": "bytes32",
          "name": "role",
          "type": "bytes32"
        },
        {
          "internalType": "address",
          "name": "account",
          "type": "address"
        }
      ],
      "name": "renounceRole",
      "outputs": [],
      "stateMutability": "nonpayable",
      "type": "function"
    },
    {
      "inputs": [
        {
          "internalType": "bytes32",
          "name": "role",
          "type": "bytes32"
        },
        {
          "internalType": "address",
          "name": "account",
          "type": "address"
        }
      ],
      "name": "revokeRole",
      "outputs": [],
      "stateMutability": "nonpayable",
      "type": "function"
    },
    {
      "inputs": [
        {
          "internalType": "address",
          "name": "from",
          "type": "address"
        },
        {
          "internalType": "address",
          "name": "to",
          "type": "address"
        },
        {
          "internalType": "uint256",
          "name": "tokenId",
          "type": "uint256"
        }
      ],
      "name": "safeTransferFrom",
      "outputs": [],
      "stateMutability": "nonpayable",
      "type": "function"
    },
    {
      "inputs": [
        {
          "internalType": "address",
          "name": "from",
          "type": "address"
        },
        {
          "internalType": "address",
          "name": "to",
          "type": "address"
        },
        {
          "internalType": "uint256",
          "name": "tokenId",
          "type": "uint256"
        },
        {
          "internalType": "bytes",
          "name": "data",
          "type": "bytes"
        }
      ],
      "name": "safeTransferFrom",
      "outputs": [],
      "stateMutability": "nonpayable",
      "type": "function"
    },
    {
      "inputs": [
        {
          "internalType": "address",
          "name": "operator",
          "type": "address"
        },
        {
          "internalType": "bool",
          "name": "approved",
          "type": "bool"
        }
      ],
      "name": "setApprovalForAll",
      "outputs": [],
      "stateMutability": "nonpayable",
      "type": "function"
    },
    {
      "inputs": [
        {
          "internalType": "bytes4",
          "name": "interfaceId",
          "type": "bytes4"
        }
      ],
      "name": "supportsInterface",
      "outputs": [
        {
          "internalType": "bool",
          "name": "",
          "type": "bool"
        }
      ],
      "stateMutability": "view",
      "type": "function"
    },
    {
      "inputs": [],
      "name": "symbol",
      "outputs": [
        {
          "internalType": "string",
          "name": "",
          "type": "string"
        }
      ],
      "stateMutability": "view",
      "type": "function"
    },
    {
      "inputs": [
        {
          "internalType": "uint256",
          "name": "tokenId",
          "type": "uint256"
        }
      ],
      "name": "tokenURI",
      "outputs": [
        {
          "internalType": "string",
          "name": "",
          "type": "string"
        }
      ],
      "stateMutability": "view",
      "type": "function"
    },
    {
      "inputs": [
        {
          "internalType": "address",
          "name": "from",
          "type": "address"
        },
        {
          "internalType": "address",
          "name": "to",
          "type": "address"
        },
        {
          "internalType": "uint256",
          "name": "tokenId",
          "type": "uint256"
        }
      ],
      "name": "transferFrom",
      "outputs": [],
      "stateMutability": "nonpayable",
      "type": "function"
    },
    {
      "inputs": [
        {
          "internalType": "address",
          "name": "newOwner",
          "type": "address"
        }
      ],
      "name": "transferOwnership",
      "outputs": [],
      "stateMutability": "nonpayable",
      "type": "function"
    },
    {
      "inputs": [
        {
          "internalType": "address",
          "name": "to",
          "type": "address"
        },
        {
          "internalType": "uint32",
          "name": "_tokenId",
          "type": "uint32"
        },
        {
          "internalType": "string",
          "name": "_tokenURI",
          "type": "string"
        }
      ],
      "name": "update",
      "outputs": [],
      "stateMutability": "nonpayable",
      "type": "function"
    },
    {
      "inputs": [
        {
          "internalType": "uint32",
          "name": "_tokenId",
          "type": "uint32"
        },
        {
          "internalType": "string",
          "name": "_tokenURI",
          "type": "string"
        }
      ],
      "name": "updateTokenURI",
      "outputs": [],
      "stateMutability": "nonpayable",
      "type": "function"
    },
    {
      "inputs": [
        {
          "internalType": "uint256",
          "name": "tokenId",
          "type": "uint256"
        },
        {
          "internalType": "string",
          "name": "uri",
          "type": "string"
        }
      ],
      "name": "updateTokenURI",
      "outputs": [],
      "stateMutability": "nonpayable",
      "type": "function"
    }
  ],
  "bytecode": "0x60806040523480156200001157600080fd5b5060405162002c9e38038062002c9e8339810160408190526200003491620003c7565b8151829082906200004d90600090602085019062000254565b5080516200006390600190602084019062000254565b505050620000806200007a6200009560201b60201c565b62000099565b6200008d600033620000eb565b50506200046e565b3390565b600780546001600160a01b038381166001600160a01b0319831681179093556040519116919082907f8be0079c531659141344cd1fd0a4f28419497f9722a3daafe3b4186f6b6457e090600090a35050565b620000f78282620000fb565b5050565b6200011282826200013e60201b62000d6c1760201c565b60008281526009602090815260409091206200013991839062000df2620001e2821b17901c565b505050565b60008281526008602090815260408083206001600160a01b038516845290915290205460ff16620000f75760008281526008602090815260408083206001600160a01b03851684529091529020805460ff191660011790556200019e3390565b6001600160a01b0316816001600160a01b0316837f2f8788117e7eff1d82e926ec794901d17c78024a50270940304540a733656f0d60405160405180910390a45050565b6000620001f9836001600160a01b03841662000202565b90505b92915050565b60008181526001830160205260408120546200024b57508154600181810184556000848152602080822090930184905584548482528286019093526040902091909155620001fc565b506000620001fc565b828054620002629062000431565b90600052602060002090601f016020900481019282620002865760008555620002d1565b82601f10620002a157805160ff1916838001178555620002d1565b82800160010185558215620002d1579182015b82811115620002d1578251825591602001919060010190620002b4565b50620002df929150620002e3565b5090565b5b80821115620002df5760008155600101620002e4565b634e487b7160e01b600052604160045260246000fd5b600082601f8301126200032257600080fd5b81516001600160401b03808211156200033f576200033f620002fa565b604051601f8301601f19908116603f011681019082821181831017156200036a576200036a620002fa565b816040528381526020925086838588010111156200038757600080fd5b600091505b83821015620003ab57858201830151818301840152908201906200038c565b83821115620003bd5760008385830101525b9695505050505050565b60008060408385031215620003db57600080fd5b82516001600160401b0380821115620003f357600080fd5b620004018683870162000310565b935060208501519150808211156200041857600080fd5b50620004278582860162000310565b9150509250929050565b600181811c908216806200044657607f821691505b602082108114156200046857634e487b7160e01b600052602260045260246000fd5b50919050565b612820806200047e6000396000f3fe608060405234801561001057600080fd5b50600436106101fb5760003560e01c8063715018a61161011a578063a217fddf116100ad578063ca15c8731161007c578063ca15c87314610435578063d547741f14610448578063e53626671461045b578063e985e9c514610463578063f2fde38b1461049f57600080fd5b8063a217fddf146103f4578063a22cb465146103fc578063b88d4fde1461040f578063c87b56dd1461042257600080fd5b80639010d07c116100e95780639010d07c146103b357806391d14854146103c657806395d89b41146103d95780639c6d6d4e146103e157600080fd5b8063715018a61461037f5780637b47ec1a1461038757806383b8a5ae1461039a5780638da5cb5b146103a257600080fd5b806324d7806c11610192578063625d41e211610161578063625d41e2146103335780636352211e14610346578063704802751461035957806370a082311461036c57600080fd5b806324d7806c146102e75780632f2ff15d146102fa57806336568abe1461030d57806342842e0e1461032057600080fd5b80630c893307116101ce5780630c8933071461027d57806318e97fd11461029057806323b872dd146102a3578063248a9ca3146102b657600080fd5b806301ffc9a71461020057806306fdde0314610228578063081812fc1461023d578063095ea7b314610268575b600080fd5b61021361020e3660046120ab565b6104b2565b60405190151581526020015b60405180910390f35b6102306104c3565b60405161021f9190612120565b61025061024b366004612133565b610555565b6040516001600160a01b03909116815260200161021f565b61027b610276366004612168565b61057c565b005b61027b61028b366004612252565b610697565b61027b61029e3660046122a0565b610726565b61027b6102b13660046122d1565b6107ab565b6102d96102c4366004612133565b60009081526008602052604090206001015490565b60405190815260200161021f565b6102136102f536600461230d565b6107dc565b61027b610308366004612328565b6107e8565b61027b61031b366004612328565b61080d565b61027b61032e3660046122d1565b610887565b61027b610341366004612354565b6108a2565b610250610354366004612133565b610957565b61027b61036736600461230d565b6109b7565b6102d961037a36600461230d565b610a40565b61027b610ac6565b61027b610395366004612133565b610ada565b61027b610b5e565b6007546001600160a01b0316610250565b6102506103c13660046123b2565b610b69565b6102136103d4366004612328565b610b88565b610230610bb3565b61027b6103ef366004612354565b610bc2565b6102d9600081565b61027b61040a3660046123e2565b610c6c565b61027b61041d366004612419565b610c77565b610230610430366004612133565b610caf565b6102d9610443366004612133565b610cba565b61027b610456366004612328565b610cd1565b600a546102d9565b610213610471366004612495565b6001600160a01b03918216600090815260056020908152604080832093909416825291909152205460ff1690565b61027b6104ad36600461230d565b610cf6565b60006104bd82610e07565b92915050565b6060600080546104d2906124bf565b80601f01602080910402602001604051908101604052809291908181526020018280546104fe906124bf565b801561054b5780601f106105205761010080835404028352916020019161054b565b820191906000526020600020905b81548152906001019060200180831161052e57829003601f168201915b5050505050905090565b600061056082610e2c565b506000908152600460205260409020546001600160a01b031690565b600061058782610957565b9050806001600160a01b0316836001600160a01b031614156105fa5760405162461bcd60e51b815260206004820152602160248201527f4552433732313a20617070726f76616c20746f2063757272656e74206f776e656044820152603960f91b60648201526084015b60405180910390fd5b336001600160a01b038216148061061657506106168133610471565b6106885760405162461bcd60e51b815260206004820152603d60248201527f4552433732313a20617070726f76652063616c6c6572206973206e6f7420746f60448201527f6b656e206f776e6572206f7220617070726f76656420666f7220616c6c00000060648201526084016105f1565b6106928383610e8b565b505050565b604051630935e01b60e21b815233600482015230906324d7806c90602401602060405180830381865afa1580156106d2573d6000803e3d6000fd5b505050506040513d601f19601f820116820180604052508101906106f691906124fa565b6107125760405162461bcd60e51b81526004016105f190612517565b6107228263ffffffff1682610ef9565b5050565b604051630935e01b60e21b815233600482015230906324d7806c90602401602060405180830381865afa158015610761573d6000803e3d6000fd5b505050506040513d601f19601f8201168201806040525081019061078591906124fa565b6107a15760405162461bcd60e51b81526004016105f190612517565b6107228282610ef9565b6107b53382610f93565b6107d15760405162461bcd60e51b81526004016105f190612546565b610692838383611012565b60006104bd8183610b88565b60008281526008602052604090206001015461080381611074565b610692838361107e565b6001600160a01b038116331461087d5760405162461bcd60e51b815260206004820152602f60248201527f416363657373436f6e74726f6c3a2063616e206f6e6c792072656e6f756e636560448201526e103937b632b9903337b91039b2b63360891b60648201526084016105f1565b61072282826110a0565b61069283838360405180602001604052806000815250610c77565b604051630935e01b60e21b815233600482015230906324d7806c90602401602060405180830381865afa1580156108dd573d6000803e3d6000fd5b505050506040513d601f19601f8201168201806040525081019061090191906124fa565b61091d5760405162461bcd60e51b81526004016105f190612517565b61092d838363ffffffff166110c2565b61093d8263ffffffff1682610ef9565b600a805490600061094d836125a9565b9190505550505050565b6000818152600260205260408120546001600160a01b0316806104bd5760405162461bcd60e51b8152602060048201526018602482015277115490cdcc8c4e881a5b9d985b1a59081d1bdad95b88125160421b60448201526064016105f1565b604051630935e01b60e21b815233600482015230906324d7806c90602401602060405180830381865afa1580156109f2573d6000803e3d6000fd5b505050506040513d601f19601f82011682018060405250810190610a1691906124fa565b610a325760405162461bcd60e51b81526004016105f190612517565b610a3d6000826107e8565b50565b60006001600160a01b038216610aaa5760405162461bcd60e51b815260206004820152602960248201527f4552433732313a2061646472657373207a65726f206973206e6f7420612076616044820152683634b21037bbb732b960b91b60648201526084016105f1565b506001600160a01b031660009081526003602052604090205490565b610ace6110dc565b610ad86000611136565b565b604051630935e01b60e21b815233600482015230906324d7806c90602401602060405180830381865afa158015610b15573d6000803e3d6000fd5b505050506040513d601f19601f82011682018060405250810190610b3991906124fa565b610b555760405162461bcd60e51b81526004016105f190612517565b610a3d81611188565b610ad860003361080d565b6000828152600960205260408120610b8190836111a7565b9392505050565b60009182526008602090815260408084206001600160a01b0393909316845291905290205460ff1690565b6060600180546104d2906124bf565b604051630935e01b60e21b815233600482015230906324d7806c90602401602060405180830381865afa158015610bfd573d6000803e3d6000fd5b505050506040513d601f19601f82011682018060405250810190610c2191906124fa565b610c3d5760405162461bcd60e51b81526004016105f190612517565b610c4c8263ffffffff16611188565b610c5c838363ffffffff166110c2565b6106928263ffffffff1682610ef9565b6107223383836111b3565b610c813383610f93565b610c9d5760405162461bcd60e51b81526004016105f190612546565b610ca984848484611282565b50505050565b60606104bd826112b5565b60008181526009602052604081206104bd906113be565b600082815260086020526040902060010154610cec81611074565b61069283836110a0565b610cfe6110dc565b6001600160a01b038116610d635760405162461bcd60e51b815260206004820152602660248201527f4f776e61626c653a206e6577206f776e657220697320746865207a65726f206160448201526564647265737360d01b60648201526084016105f1565b610a3d81611136565b610d768282610b88565b6107225760008281526008602090815260408083206001600160a01b03851684529091529020805460ff19166001179055610dae3390565b6001600160a01b0316816001600160a01b0316837f2f8788117e7eff1d82e926ec794901d17c78024a50270940304540a733656f0d60405160405180910390a45050565b6000610b81836001600160a01b0384166113c8565b60006001600160e01b03198216635a05180f60e01b14806104bd57506104bd82611417565b6000818152600260205260409020546001600160a01b0316610a3d5760405162461bcd60e51b8152602060048201526018602482015277115490cdcc8c4e881a5b9d985b1a59081d1bdad95b88125160421b60448201526064016105f1565b600081815260046020526040902080546001600160a01b0319166001600160a01b0384169081179091558190610ec082610957565b6001600160a01b03167f8c5be1e5ebec7d5bd14f71427d1e84f3dd0314c0f7b2291e5b200ac8c7c3b92560405160405180910390a45050565b6000828152600260205260409020546001600160a01b0316610f745760405162461bcd60e51b815260206004820152602e60248201527f45524337323155524953746f726167653a2055524920736574206f66206e6f6e60448201526d32bc34b9ba32b73a103a37b5b2b760911b60648201526084016105f1565b6000828152600660209081526040909120825161069292840190611fc6565b600080610f9f83610957565b9050806001600160a01b0316846001600160a01b03161480610fe657506001600160a01b0380821660009081526005602090815260408083209388168352929052205460ff165b8061100a5750836001600160a01b0316610fff84610555565b6001600160a01b0316145b949350505050565b6001600160a01b038316156110695760405162461bcd60e51b815260206004820152601c60248201527f596f752063616e2774207472616e736665722074686973204e46542e0000000060448201526064016105f1565b61069283838361143c565b610a3d81336115ad565b6110888282610d6c565b60008281526009602052604090206106929082610df2565b6110aa8282611606565b6000828152600960205260409020610692908261166d565b610722828260405180602001604052806000815250611682565b6007546001600160a01b03163314610ad85760405162461bcd60e51b815260206004820181905260248201527f4f776e61626c653a2063616c6c6572206973206e6f7420746865206f776e657260448201526064016105f1565b600780546001600160a01b038381166001600160a01b0319831681179093556040519116919082907f8be0079c531659141344cd1fd0a4f28419497f9722a3daafe3b4186f6b6457e090600090a35050565b611191816116b5565b600a600081546111a0906125c4565b9091555050565b6000610b8183836116f5565b816001600160a01b0316836001600160a01b031614156112155760405162461bcd60e51b815260206004820152601960248201527f4552433732313a20617070726f766520746f2063616c6c65720000000000000060448201526064016105f1565b6001600160a01b03838116600081815260056020908152604080832094871680845294825291829020805460ff191686151590811790915591519182527f17307eab39ab6107e8899845ad3d59bd9653f200f220920489ca2b5937696c31910160405180910390a3505050565b61128d848484611012565b6112998484848461171f565b610ca95760405162461bcd60e51b81526004016105f1906125db565b60606112c082610e2c565b600082815260066020526040812080546112d9906124bf565b80601f0160208091040260200160405190810160405280929190818152602001828054611305906124bf565b80156113525780601f1061132757610100808354040283529160200191611352565b820191906000526020600020905b81548152906001019060200180831161133557829003601f168201915b50505050509050600061137060408051602081019091526000815290565b9050805160001415611383575092915050565b8151156113b557808260405160200161139d92919061262d565b60405160208183030381529060405292505050919050565b61100a8461181d565b60006104bd825490565b600081815260018301602052604081205461140f575081546001818101845560008481526020808220909301849055845484825282860190935260409020919091556104bd565b5060006104bd565b60006001600160e01b03198216637965db0b60e01b14806104bd57506104bd82611890565b826001600160a01b031661144f82610957565b6001600160a01b0316146114755760405162461bcd60e51b81526004016105f19061265c565b6001600160a01b0382166114d75760405162461bcd60e51b8152602060048201526024808201527f4552433732313a207472616e7366657220746f20746865207a65726f206164646044820152637265737360e01b60648201526084016105f1565b6114e483838360016118e0565b826001600160a01b03166114f782610957565b6001600160a01b03161461151d5760405162461bcd60e51b81526004016105f19061265c565b600081815260046020908152604080832080546001600160a01b03199081169091556001600160a01b0387811680865260038552838620805460001901905590871680865283862080546001019055868652600290945282852080549092168417909155905184937fddf252ad1be2c89b69c2b068fc378daa952ba7f163c4a11628f55a4df523b3ef91a4505050565b6115b78282610b88565b610722576115c4816118ec565b6115cf8360206118fe565b6040516020016115e09291906126a1565b60408051601f198184030181529082905262461bcd60e51b82526105f191600401612120565b6116108282610b88565b156107225760008281526008602090815260408083206001600160a01b0385168085529252808320805460ff1916905551339285917ff6391f5c32d9c69d2a47ea670b442974b53935d1edc7fd64eb21e047a839171b9190a45050565b6000610b81836001600160a01b038416611a9a565b61168c8383611b8d565b611699600084848461171f565b6106925760405162461bcd60e51b81526004016105f1906125db565b6116be81611d26565b600081815260066020526040902080546116d7906124bf565b159050610a3d576000818152600660205260408120610a3d9161204a565b600082600001828154811061170c5761170c612716565b9060005260206000200154905092915050565b60006001600160a01b0384163b1561181257604051630a85bd0160e11b81526001600160a01b0385169063150b7a029061176390339089908890889060040161272c565b6020604051808303816000875af192505050801561179e575060408051601f3d908101601f1916820190925261179b91810190612769565b60015b6117f8573d8080156117cc576040519150601f19603f3d011682016040523d82523d6000602084013e6117d1565b606091505b5080516117f05760405162461bcd60e51b81526004016105f1906125db565b805181602001fd5b6001600160e01b031916630a85bd0160e11b14905061100a565b506001949350505050565b606061182882610e2c565b600061183f60408051602081019091526000815290565b9050600081511161185f5760405180602001604052806000815250610b81565b8061186984611dc9565b60405160200161187a92919061262d565b6040516020818303038152906040529392505050565b60006001600160e01b031982166380ac58cd60e01b14806118c157506001600160e01b03198216635b5e139f60e01b145b806104bd57506301ffc9a760e01b6001600160e01b03198316146104bd565b610ca984848484611e66565b60606104bd6001600160a01b03831660145b6060600061190d836002612786565b6119189060026127a5565b67ffffffffffffffff811115611930576119306121a6565b6040519080825280601f01601f19166020018201604052801561195a576020820181803683370190505b509050600360fc1b8160008151811061197557611975612716565b60200101906001600160f81b031916908160001a905350600f60fb1b816001815181106119a4576119a4612716565b60200101906001600160f81b031916908160001a90535060006119c8846002612786565b6119d39060016127a5565b90505b6001811115611a4b576f181899199a1a9b1b9c1cb0b131b232b360811b85600f1660108110611a0757611a07612716565b1a60f81b828281518110611a1d57611a1d612716565b60200101906001600160f81b031916908160001a90535060049490941c93611a44816125c4565b90506119d6565b508315610b815760405162461bcd60e51b815260206004820181905260248201527f537472696e67733a20686578206c656e67746820696e73756666696369656e7460448201526064016105f1565b60008181526001830160205260408120548015611b83576000611abe6001836127bd565b8554909150600090611ad2906001906127bd565b9050818114611b37576000866000018281548110611af257611af2612716565b9060005260206000200154905080876000018481548110611b1557611b15612716565b6000918252602080832090910192909255918252600188019052604090208390555b8554869080611b4857611b486127d4565b6001900381819060005260206000200160009055905585600101600086815260200190815260200160002060009055600193505050506104bd565b60009150506104bd565b6001600160a01b038216611be35760405162461bcd60e51b815260206004820181905260248201527f4552433732313a206d696e7420746f20746865207a65726f206164647265737360448201526064016105f1565b6000818152600260205260409020546001600160a01b031615611c485760405162461bcd60e51b815260206004820152601c60248201527f4552433732313a20746f6b656e20616c7265616479206d696e7465640000000060448201526064016105f1565b611c566000838360016118e0565b6000818152600260205260409020546001600160a01b031615611cbb5760405162461bcd60e51b815260206004820152601c60248201527f4552433732313a20746f6b656e20616c7265616479206d696e7465640000000060448201526064016105f1565b6001600160a01b038216600081815260036020908152604080832080546001019055848352600290915280822080546001600160a01b0319168417905551839291907fddf252ad1be2c89b69c2b068fc378daa952ba7f163c4a11628f55a4df523b3ef908290a45050565b6000611d3182610957565b9050611d418160008460016118e0565b611d4a82610957565b600083815260046020908152604080832080546001600160a01b03199081169091556001600160a01b0385168085526003845282852080546000190190558785526002909352818420805490911690555192935084927fddf252ad1be2c89b69c2b068fc378daa952ba7f163c4a11628f55a4df523b3ef908390a45050565b60606000611dd683611eee565b600101905060008167ffffffffffffffff811115611df657611df66121a6565b6040519080825280601f01601f191660200182016040528015611e20576020820181803683370190505b5090508181016020015b600019016f181899199a1a9b1b9c1cb0b131b232b360811b600a86061a8153600a8504945084611e5957611e5e565b611e2a565b509392505050565b6001811115610ca9576001600160a01b03841615611eac576001600160a01b03841660009081526003602052604081208054839290611ea69084906127bd565b90915550505b6001600160a01b03831615610ca9576001600160a01b03831660009081526003602052604081208054839290611ee39084906127a5565b909155505050505050565b60008072184f03e93ff9f4daa797ed6e38ed64bf6a1f0160401b8310611f2d5772184f03e93ff9f4daa797ed6e38ed64bf6a1f0160401b830492506040015b6d04ee2d6d415b85acef81000000008310611f59576d04ee2d6d415b85acef8100000000830492506020015b662386f26fc100008310611f7757662386f26fc10000830492506010015b6305f5e1008310611f8f576305f5e100830492506008015b6127108310611fa357612710830492506004015b60648310611fb5576064830492506002015b600a83106104bd5760010192915050565b828054611fd2906124bf565b90600052602060002090601f016020900481019282611ff4576000855561203a565b82601f1061200d57805160ff191683800117855561203a565b8280016001018555821561203a579182015b8281111561203a57825182559160200191906001019061201f565b50612046929150612080565b5090565b508054612056906124bf565b6000825580601f10612066575050565b601f016020900490600052602060002090810190610a3d91905b5b808211156120465760008155600101612081565b6001600160e01b031981168114610a3d57600080fd5b6000602082840312156120bd57600080fd5b8135610b8181612095565b60005b838110156120e35781810151838201526020016120cb565b83811115610ca95750506000910152565b6000815180845261210c8160208601602086016120c8565b601f01601f19169290920160200192915050565b602081526000610b8160208301846120f4565b60006020828403121561214557600080fd5b5035919050565b80356001600160a01b038116811461216357600080fd5b919050565b6000806040838503121561217b57600080fd5b6121848361214c565b946020939093013593505050565b803563ffffffff8116811461216357600080fd5b634e487b7160e01b600052604160045260246000fd5b600067ffffffffffffffff808411156121d7576121d76121a6565b604051601f8501601f19908116603f011681019082821181831017156121ff576121ff6121a6565b8160405280935085815286868601111561221857600080fd5b858560208301376000602087830101525050509392505050565b600082601f83011261224357600080fd5b610b81838335602085016121bc565b6000806040838503121561226557600080fd5b61226e83612192565b9150602083013567ffffffffffffffff81111561228a57600080fd5b61229685828601612232565b9150509250929050565b600080604083850312156122b357600080fd5b82359150602083013567ffffffffffffffff81111561228a57600080fd5b6000806000606084860312156122e657600080fd5b6122ef8461214c565b92506122fd6020850161214c565b9150604084013590509250925092565b60006020828403121561231f57600080fd5b610b818261214c565b6000806040838503121561233b57600080fd5b8235915061234b6020840161214c565b90509250929050565b60008060006060848603121561236957600080fd5b6123728461214c565b925061238060208501612192565b9150604084013567ffffffffffffffff81111561239c57600080fd5b6123a886828701612232565b9150509250925092565b600080604083850312156123c557600080fd5b50508035926020909101359150565b8015158114610a3d57600080fd5b600080604083850312156123f557600080fd5b6123fe8361214c565b9150602083013561240e816123d4565b809150509250929050565b6000806000806080858703121561242f57600080fd5b6124388561214c565b93506124466020860161214c565b925060408501359150606085013567ffffffffffffffff81111561246957600080fd5b8501601f8101871361247a57600080fd5b612489878235602084016121bc565b91505092959194509250565b600080604083850312156124a857600080fd5b6124b18361214c565b915061234b6020840161214c565b600181811c908216806124d357607f821691505b602082108114156124f457634e487b7160e01b600052602260045260246000fd5b50919050565b60006020828403121561250c57600080fd5b8151610b81816123d4565b6020808252601590820152742932b9ba3934b1ba32b2103a379030b236b4b7399760591b604082015260600190565b6020808252602d908201527f4552433732313a2063616c6c6572206973206e6f7420746f6b656e206f776e6560408201526c1c881bdc88185c1c1c9bdd9959609a1b606082015260800190565b634e487b7160e01b600052601160045260246000fd5b60006000198214156125bd576125bd612593565b5060010190565b6000816125d3576125d3612593565b506000190190565b60208082526032908201527f4552433732313a207472616e7366657220746f206e6f6e20455243373231526560408201527131b2b4bb32b91034b6b83632b6b2b73a32b960711b606082015260800190565b6000835161263f8184602088016120c8565b8351908301906126538183602088016120c8565b01949350505050565b60208082526025908201527f4552433732313a207472616e736665722066726f6d20696e636f72726563742060408201526437bbb732b960d91b606082015260800190565b7f416363657373436f6e74726f6c3a206163636f756e74200000000000000000008152600083516126d98160178501602088016120c8565b7001034b99036b4b9b9b4b733903937b6329607d1b601791840191820152835161270a8160288401602088016120c8565b01602801949350505050565b634e487b7160e01b600052603260045260246000fd5b6001600160a01b038581168252841660208201526040810183905260806060820181905260009061275f908301846120f4565b9695505050505050565b60006020828403121561277b57600080fd5b8151610b8181612095565b60008160001904831182151516156127a0576127a0612593565b500290565b600082198211156127b8576127b8612593565b500190565b6000828210156127cf576127cf612593565b500390565b634e487b7160e01b600052603160045260246000fdfea2646970667358221220b926bf6545dac5f9a12f22ce2ced17d3756c4f349d04db1e3bd3e4f51dcee84e64736f6c634300080b0033",
  "linkReferences": {},
  "deployedLinkReferences": {}
}