{
  "_format": "hh-sol-artifact-1",
  "contractName": "EmployeeNFT",
  "sourceName": "contracts/EmployeeNFT.sol",
  "abi": [
    {
      "inputs": [
        {
          "internalType": "string",
          "name": "name",
          "type": "string"
        },
        {
          "internalType": "string",
          "name": "symbol",
          "type": "string"
        }
      ],
      "stateMutability": "nonpayable",
      "type": "constructor"
    },
    {
      "anonymous": false,
      "inputs": [
        {
          "indexed": true,
          "internalType": "address",
          "name": "owner",
          "type": "address"
        },
        {
          "indexed": true,
          "internalType": "address",
          "name": "approved",
          "type": "address"
        },
        {
          "indexed": true,
          "internalType": "uint256",
          "name": "tokenId",
          "type": "uint256"
        }
      ],
      "name": "Approval",
      "type": "event"
    },
    {
      "anonymous": false,
      "inputs": [
        {
          "indexed": true,
          "internalType": "address",
          "name": "owner",
          "type": "address"
        },
        {
          "indexed": true,
          "internalType": "address",
          "name": "operator",
          "type": "address"
        },
        {
          "indexed": false,
          "internalType": "bool",
          "name": "approved",
          "type": "bool"
        }
      ],
      "name": "ApprovalForAll",
      "type": "event"
    },
    {
      "anonymous": false,
      "inputs": [
        {
          "indexed": true,
          "internalType": "address",
          "name": "previousOwner",
          "type": "address"
        },
        {
          "indexed": true,
          "internalType": "address",
          "name": "newOwner",
          "type": "address"
        }
      ],
      "name": "OwnershipTransferred",
      "type": "event"
    },
    {
      "anonymous": false,
      "inputs": [
        {
          "indexed": true,
          "internalType": "bytes32",
          "name": "role",
          "type": "bytes32"
        },
        {
          "indexed": true,
          "internalType": "bytes32",
          "name": "previousAdminRole",
          "type": "bytes32"
        },
        {
          "indexed": true,
          "internalType": "bytes32",
          "name": "newAdminRole",
          "type": "bytes32"
        }
      ],
      "name": "RoleAdminChanged",
      "type": "event"
    },
    {
      "anonymous": false,
      "inputs": [
        {
          "indexed": true,
          "internalType": "bytes32",
          "name": "role",
          "type": "bytes32"
        },
        {
          "indexed": true,
          "internalType": "address",
          "name": "account",
          "type": "address"
        },
        {
          "indexed": true,
          "internalType": "address",
          "name": "sender",
          "type": "address"
        }
      ],
      "name": "RoleGranted",
      "type": "event"
    },
    {
      "anonymous": false,
      "inputs": [
        {
          "indexed": true,
          "internalType": "bytes32",
          "name": "role",
          "type": "bytes32"
        },
        {
          "indexed": true,
          "internalType": "address",
          "name": "account",
          "type": "address"
        },
        {
          "indexed": true,
          "internalType": "address",
          "name": "sender",
          "type": "address"
        }
      ],
      "name": "RoleRevoked",
      "type": "event"
    },
    {
      "anonymous": false,
      "inputs": [
        {
          "indexed": true,
          "internalType": "address",
          "name": "from",
          "type": "address"
        },
        {
          "indexed": true,
          "internalType": "address",
          "name": "to",
          "type": "address"
        },
        {
          "indexed": true,
          "internalType": "uint256",
          "name": "tokenId",
          "type": "uint256"
        }
      ],
      "name": "Transfer",
      "type": "event"
    },
    {
      "inputs": [],
      "name": "DEFAULT_ADMIN_ROLE",
      "outputs": [
        {
          "internalType": "bytes32",
          "name": "",
          "type": "bytes32"
        }
      ],
      "stateMutability": "view",
      "type": "function"
    },
    {
      "inputs": [
        {
          "internalType": "address",
          "name": "account",
          "type": "address"
        }
      ],
      "name": "addAdmin",
      "outputs": [],
      "stateMutability": "nonpayable",
      "type": "function"
    },
    {
      "inputs": [
        {
          "internalType": "address",
          "name": "to",
          "type": "address"
        },
        {
          "internalType": "uint256",
          "name": "tokenId",
          "type": "uint256"
        }
      ],
      "name": "approve",
      "outputs": [],
      "stateMutability": "nonpayable",
      "type": "function"
    },
    {
      "inputs": [
        {
          "internalType": "address",
          "name": "owner",
          "type": "address"
        }
      ],
      "name": "balanceOf",
      "outputs": [
        {
          "internalType": "uint256",
          "name": "",
          "type": "uint256"
        }
      ],
      "stateMutability": "view",
      "type": "function"
    },
    {
      "inputs": [
        {
          "internalType": "uint256",
          "name": "tokenId",
          "type": "uint256"
        }
      ],
      "name": "burnToken",
      "outputs": [],
      "stateMutability": "nonpayable",
      "type": "function"
    },
    {
      "inputs": [
        {
          "internalType": "uint256",
          "name": "tokenId",
          "type": "uint256"
        }
      ],
      "name": "getApproved",
      "outputs": [
        {
          "internalType": "address",
          "name": "",
          "type": "address"
        }
      ],
      "stateMutability": "view",
      "type": "function"
    },
    {
      "inputs": [
        {
          "internalType": "bytes32",
          "name": "role",
          "type": "bytes32"
        }
      ],
      "name": "getRoleAdmin",
      "outputs": [
        {
          "internalType": "bytes32",
          "name": "",
          "type": "bytes32"
        }
      ],
      "stateMutability": "view",
      "type": "function"
    },
    {
      "inputs": [
        {
          "internalType": "bytes32",
          "name": "role",
          "type": "bytes32"
        },
        {
          "internalType": "uint256",
          "name": "index",
          "type": "uint256"
        }
      ],
      "name": "getRoleMember",
      "outputs": [
        {
          "internalType": "address",
          "name": "",
          "type": "address"
        }
      ],
      "stateMutability": "view",
      "type": "function"
    },
    {
      "inputs": [
        {
          "internalType": "bytes32",
          "name": "role",
          "type": "bytes32"
        }
      ],
      "name": "getRoleMemberCount",
      "outputs": [
        {
          "internalType": "uint256",
          "name": "",
          "type": "uint256"
        }
      ],
      "stateMutability": "view",
      "type": "function"
    },
    {
      "inputs": [],
      "name": "getTotalTokenCount",
      "outputs": [
        {
          "internalType": "uint256",
          "name": "",
          "type": "uint256"
        }
      ],
      "stateMutability": "view",
      "type": "function"
    },
    {
      "inputs": [
        {
          "internalType": "bytes32",
          "name": "role",
          "type": "bytes32"
        },
        {
          "internalType": "address",
          "name": "account",
          "type": "address"
        }
      ],
      "name": "grantRole",
      "outputs": [],
      "stateMutability": "nonpayable",
      "type": "function"
    },
    {
      "inputs": [
        {
          "internalType": "bytes32",
          "name": "role",
          "type": "bytes32"
        },
        {
          "internalType": "address",
          "name": "account",
          "type": "address"
        }
      ],
      "name": "hasRole",
      "outputs": [
        {
          "internalType": "bool",
          "name": "",
          "type": "bool"
        }
      ],
      "stateMutability": "view",
      "type": "function"
    },
    {
      "inputs": [
        {
          "internalType": "address",
          "name": "account",
          "type": "address"
        }
      ],
      "name": "isAdmin",
      "outputs": [
        {
          "internalType": "bool",
          "name": "",
          "type": "bool"
        }
      ],
      "stateMutability": "view",
      "type": "function"
    },
    {
      "inputs": [
        {
          "internalType": "address",
          "name": "owner",
          "type": "address"
        },
        {
          "internalType": "address",
          "name": "operator",
          "type": "address"
        }
      ],
      "name": "isApprovedForAll",
      "outputs": [
        {
          "internalType": "bool",
          "name": "",
          "type": "bool"
        }
      ],
      "stateMutability": "view",
      "type": "function"
    },
    {
      "inputs": [
        {
          "internalType": "address",
          "name": "to",
          "type": "address"
        },
        {
          "internalType": "uint32",
          "name": "_tokenId",
          "type": "uint32"
        },
        {
          "internalType": "string",
          "name": "_tokenURI",
          "type": "string"
        }
      ],
      "name": "mint",
      "outputs": [],
      "stateMutability": "nonpayable",
      "type": "function"
    },
    {
      "inputs": [],
      "name": "name",
      "outputs": [
        {
          "internalType": "string",
          "name": "",
          "type": "string"
        }
      ],
      "stateMutability": "view",
      "type": "function"
    },
    {
      "inputs": [],
      "name": "owner",
      "outputs": [
        {
          "internalType": "address",
          "name": "",
          "type": "address"
        }
      ],
      "stateMutability": "view",
      "type": "function"
    },
    {
      "inputs": [
        {
          "internalType": "uint256",
          "name": "tokenId",
          "type": "uint256"
        }
      ],
      "name": "ownerOf",
      "outputs": [
        {
          "internalType": "address",
          "name": "",
          "type": "address"
        }
      ],
      "stateMutability": "view",
      "type": "function"
    },
    {
      "inputs": [],
      "name": "renounceAdminRole",
      "outputs": [],
      "stateMutability": "nonpayable",
      "type": "function"
    },
    {
      "inputs": [],
      "name": "renounceOwnership",
      "outputs": [],
      "stateMutability": "nonpayable",
      "type": "function"
    },
    {
      "inputs": [
        {
          "internalType": "bytes32",
          "name": "role",
          "type": "bytes32"
        },
        {
          "internalType": "address",
          "name": "account",
          "type": "address"
        }
      ],
      "name": "renounceRole",
      "outputs": [],
      "stateMutability": "nonpayable",
      "type": "function"
    },
    {
      "inputs": [
        {
          "internalType": "bytes32",
          "name": "role",
          "type": "bytes32"
        },
        {
          "internalType": "address",
          "name": "account",
          "type": "address"
        }
      ],
      "name": "revokeRole",
      "outputs": [],
      "stateMutability": "nonpayable",
      "type": "function"
    },
    {
      "inputs": [
        {
          "internalType": "address",
          "name": "from",
          "type": "address"
        },
        {
          "internalType": "address",
          "name": "to",
          "type": "address"
        },
        {
          "internalType": "uint256",
          "name": "tokenId",
          "type": "uint256"
        }
      ],
      "name": "safeTransferFrom",
      "outputs": [],
      "stateMutability": "nonpayable",
      "type": "function"
    },
    {
      "inputs": [
        {
          "internalType": "address",
          "name": "from",
          "type": "address"
        },
        {
          "internalType": "address",
          "name": "to",
          "type": "address"
        },
        {
          "internalType": "uint256",
          "name": "tokenId",
          "type": "uint256"
        },
        {
          "internalType": "bytes",
          "name": "data",
          "type": "bytes"
        }
      ],
      "name": "safeTransferFrom",
      "outputs": [],
      "stateMutability": "nonpayable",
      "type": "function"
    },
    {
      "inputs": [
        {
          "internalType": "address",
          "name": "operator",
          "type": "address"
        },
        {
          "internalType": "bool",
          "name": "approved",
          "type": "bool"
        }
      ],
      "name": "setApprovalForAll",
      "outputs": [],
      "stateMutability": "nonpayable",
      "type": "function"
    },
    {
      "inputs": [
        {
          "internalType": "bytes4",
          "name": "interfaceId",
          "type": "bytes4"
        }
      ],
      "name": "supportsInterface",
      "outputs": [
        {
          "internalType": "bool",
          "name": "",
          "type": "bool"
        }
      ],
      "stateMutability": "view",
      "type": "function"
    },
    {
      "inputs": [],
      "name": "symbol",
      "outputs": [
        {
          "internalType": "string",
          "name": "",
          "type": "string"
        }
      ],
      "stateMutability": "view",
      "type": "function"
    },
    {
      "inputs": [
        {
          "internalType": "uint256",
          "name": "tokenId",
          "type": "uint256"
        }
      ],
      "name": "tokenURI",
      "outputs": [
        {
          "internalType": "string",
          "name": "",
          "type": "string"
        }
      ],
      "stateMutability": "view",
      "type": "function"
    },
    {
      "inputs": [
        {
          "internalType": "address",
          "name": "from",
          "type": "address"
        },
        {
          "internalType": "address",
          "name": "to",
          "type": "address"
        },
        {
          "internalType": "uint256",
          "name": "tokenId",
          "type": "uint256"
        }
      ],
      "name": "transferFrom",
      "outputs": [],
      "stateMutability": "nonpayable",
      "type": "function"
    },
    {
      "inputs": [
        {
          "internalType": "address",
          "name": "newOwner",
          "type": "address"
        }
      ],
      "name": "transferOwnership",
      "outputs": [],
      "stateMutability": "nonpayable",
      "type": "function"
    },
    {
      "inputs": [
        {
          "internalType": "uint256",
          "name": "tokenId",
          "type": "uint256"
        },
        {
          "internalType": "string",
          "name": "uri",
          "type": "string"
        }
      ],
      "name": "updateTokenURI",
      "outputs": [],
      "stateMutability": "nonpayable",
      "type": "function"
    }
  ],
  "bytecode": "0x60806040523480156200001157600080fd5b5060405162002aec38038062002aec8339810160408190526200003491620003c7565b8151829082906200004d90600090602085019062000254565b5080516200006390600190602084019062000254565b505050620000806200007a6200009560201b60201c565b62000099565b6200008d600033620000eb565b50506200046e565b3390565b600780546001600160a01b038381166001600160a01b0319831681179093556040519116919082907f8be0079c531659141344cd1fd0a4f28419497f9722a3daafe3b4186f6b6457e090600090a35050565b620000f78282620000fb565b5050565b6200011282826200013e60201b62000bfb1760201c565b60008281526009602090815260409091206200013991839062000c81620001e2821b17901c565b505050565b60008281526008602090815260408083206001600160a01b038516845290915290205460ff16620000f75760008281526008602090815260408083206001600160a01b03851684529091529020805460ff191660011790556200019e3390565b6001600160a01b0316816001600160a01b0316837f2f8788117e7eff1d82e926ec794901d17c78024a50270940304540a733656f0d60405160405180910390a45050565b6000620001f9836001600160a01b03841662000202565b90505b92915050565b60008181526001830160205260408120546200024b57508154600181810184556000848152602080822090930184905584548482528286019093526040902091909155620001fc565b506000620001fc565b828054620002629062000431565b90600052602060002090601f016020900481019282620002865760008555620002d1565b82601f10620002a157805160ff1916838001178555620002d1565b82800160010185558215620002d1579182015b82811115620002d1578251825591602001919060010190620002b4565b50620002df929150620002e3565b5090565b5b80821115620002df5760008155600101620002e4565b634e487b7160e01b600052604160045260246000fd5b600082601f8301126200032257600080fd5b81516001600160401b03808211156200033f576200033f620002fa565b604051601f8301601f19908116603f011681019082821181831017156200036a576200036a620002fa565b816040528381526020925086838588010111156200038757600080fd5b600091505b83821015620003ab57858201830151818301840152908201906200038c565b83821115620003bd5760008385830101525b9695505050505050565b60008060408385031215620003db57600080fd5b82516001600160401b0380821115620003f357600080fd5b620004018683870162000310565b935060208501519150808211156200041857600080fd5b50620004278582860162000310565b9150509250929050565b600181811c908216806200044657607f821691505b602082108114156200046857634e487b7160e01b600052602260045260246000fd5b50919050565b61266e806200047e6000396000f3fe608060405234801561001057600080fd5b50600436106101e55760003560e01c8063715018a61161010f578063a22cb465116100a2578063d547741f11610071578063d547741f1461040c578063e53626671461041f578063e985e9c514610427578063f2fde38b1461046357600080fd5b8063a22cb465146103c0578063b88d4fde146103d3578063c87b56dd146103e6578063ca15c873146103f957600080fd5b80639010d07c116100de5780639010d07c1461038a57806391d148541461039d57806395d89b41146103b0578063a217fddf146103b857600080fd5b8063715018a6146103565780637b47ec1a1461035e57806383b8a5ae146103715780638da5cb5b1461037957600080fd5b806324d7806c11610187578063625d41e211610156578063625d41e21461030a5780636352211e1461031d578063704802751461033057806370a082311461034357600080fd5b806324d7806c146102be5780632f2ff15d146102d157806336568abe146102e457806342842e0e146102f757600080fd5b8063095ea7b3116101c3578063095ea7b31461025257806318e97fd11461026757806323b872dd1461027a578063248a9ca31461028d57600080fd5b806301ffc9a7146101ea57806306fdde0314610212578063081812fc14610227575b600080fd5b6101fd6101f8366004611f3a565b610476565b60405190151581526020015b60405180910390f35b61021a610487565b6040516102099190611faf565b61023a610235366004611fc2565b610519565b6040516001600160a01b039091168152602001610209565b610265610260366004611ff7565b610540565b005b6102656102753660046120cd565b61065b565b610265610288366004612114565b6106e4565b6102b061029b366004611fc2565b60009081526008602052604090206001015490565b604051908152602001610209565b6101fd6102cc366004612150565b610715565b6102656102df36600461216b565b610721565b6102656102f236600461216b565b610746565b610265610305366004612114565b6107c0565b610265610318366004612197565b6107db565b61023a61032b366004611fc2565b610890565b61026561033e366004612150565b6108f0565b6102b0610351366004612150565b610979565b6102656109ff565b61026561036c366004611fc2565b610a13565b610265610a97565b6007546001600160a01b031661023a565b61023a610398366004612200565b610aa2565b6101fd6103ab36600461216b565b610ac1565b61021a610aec565b6102b0600081565b6102656103ce366004612230565b610afb565b6102656103e1366004612267565b610b06565b61021a6103f4366004611fc2565b610b3e565b6102b0610407366004611fc2565b610b49565b61026561041a36600461216b565b610b60565b600a546102b0565b6101fd6104353660046122e3565b6001600160a01b03918216600090815260056020908152604080832093909416825291909152205460ff1690565b610265610471366004612150565b610b85565b600061048182610c96565b92915050565b6060600080546104969061230d565b80601f01602080910402602001604051908101604052809291908181526020018280546104c29061230d565b801561050f5780601f106104e45761010080835404028352916020019161050f565b820191906000526020600020905b8154815290600101906020018083116104f257829003601f168201915b5050505050905090565b600061052482610cbb565b506000908152600460205260409020546001600160a01b031690565b600061054b82610890565b9050806001600160a01b0316836001600160a01b031614156105be5760405162461bcd60e51b815260206004820152602160248201527f4552433732313a20617070726f76616c20746f2063757272656e74206f776e656044820152603960f91b60648201526084015b60405180910390fd5b336001600160a01b03821614806105da57506105da8133610435565b61064c5760405162461bcd60e51b815260206004820152603d60248201527f4552433732313a20617070726f76652063616c6c6572206973206e6f7420746f60448201527f6b656e206f776e6572206f7220617070726f76656420666f7220616c6c00000060648201526084016105b5565b6106568383610d1a565b505050565b604051630935e01b60e21b815233600482015230906324d7806c90602401602060405180830381865afa158015610696573d6000803e3d6000fd5b505050506040513d601f19601f820116820180604052508101906106ba9190612348565b6106d65760405162461bcd60e51b81526004016105b590612365565b6106e08282610d88565b5050565b6106ee3382610e22565b61070a5760405162461bcd60e51b81526004016105b590612394565b610656838383610ea1565b60006104818183610ac1565b60008281526008602052604090206001015461073c81610f03565b6106568383610f0d565b6001600160a01b03811633146107b65760405162461bcd60e51b815260206004820152602f60248201527f416363657373436f6e74726f6c3a2063616e206f6e6c792072656e6f756e636560448201526e103937b632b9903337b91039b2b63360891b60648201526084016105b5565b6106e08282610f2f565b61065683838360405180602001604052806000815250610b06565b604051630935e01b60e21b815233600482015230906324d7806c90602401602060405180830381865afa158015610816573d6000803e3d6000fd5b505050506040513d601f19601f8201168201806040525081019061083a9190612348565b6108565760405162461bcd60e51b81526004016105b590612365565b610866838363ffffffff16610f51565b6108768263ffffffff1682610d88565b600a8054906000610886836123f7565b9190505550505050565b6000818152600260205260408120546001600160a01b0316806104815760405162461bcd60e51b8152602060048201526018602482015277115490cdcc8c4e881a5b9d985b1a59081d1bdad95b88125160421b60448201526064016105b5565b604051630935e01b60e21b815233600482015230906324d7806c90602401602060405180830381865afa15801561092b573d6000803e3d6000fd5b505050506040513d601f19601f8201168201806040525081019061094f9190612348565b61096b5760405162461bcd60e51b81526004016105b590612365565b610976600082610721565b50565b60006001600160a01b0382166109e35760405162461bcd60e51b815260206004820152602960248201527f4552433732313a2061646472657373207a65726f206973206e6f7420612076616044820152683634b21037bbb732b960b91b60648201526084016105b5565b506001600160a01b031660009081526003602052604090205490565b610a07610f6b565b610a116000610fc5565b565b604051630935e01b60e21b815233600482015230906324d7806c90602401602060405180830381865afa158015610a4e573d6000803e3d6000fd5b505050506040513d601f19601f82011682018060405250810190610a729190612348565b610a8e5760405162461bcd60e51b81526004016105b590612365565b61097681611017565b610a11600033610746565b6000828152600960205260408120610aba9083611036565b9392505050565b60009182526008602090815260408084206001600160a01b0393909316845291905290205460ff1690565b6060600180546104969061230d565b6106e0338383611042565b610b103383610e22565b610b2c5760405162461bcd60e51b81526004016105b590612394565b610b3884848484611111565b50505050565b606061048182611144565b60008181526009602052604081206104819061124d565b600082815260086020526040902060010154610b7b81610f03565b6106568383610f2f565b610b8d610f6b565b6001600160a01b038116610bf25760405162461bcd60e51b815260206004820152602660248201527f4f776e61626c653a206e6577206f776e657220697320746865207a65726f206160448201526564647265737360d01b60648201526084016105b5565b61097681610fc5565b610c058282610ac1565b6106e05760008281526008602090815260408083206001600160a01b03851684529091529020805460ff19166001179055610c3d3390565b6001600160a01b0316816001600160a01b0316837f2f8788117e7eff1d82e926ec794901d17c78024a50270940304540a733656f0d60405160405180910390a45050565b6000610aba836001600160a01b038416611257565b60006001600160e01b03198216635a05180f60e01b14806104815750610481826112a6565b6000818152600260205260409020546001600160a01b03166109765760405162461bcd60e51b8152602060048201526018602482015277115490cdcc8c4e881a5b9d985b1a59081d1bdad95b88125160421b60448201526064016105b5565b600081815260046020526040902080546001600160a01b0319166001600160a01b0384169081179091558190610d4f82610890565b6001600160a01b03167f8c5be1e5ebec7d5bd14f71427d1e84f3dd0314c0f7b2291e5b200ac8c7c3b92560405160405180910390a45050565b6000828152600260205260409020546001600160a01b0316610e035760405162461bcd60e51b815260206004820152602e60248201527f45524337323155524953746f726167653a2055524920736574206f66206e6f6e60448201526d32bc34b9ba32b73a103a37b5b2b760911b60648201526084016105b5565b6000828152600660209081526040909120825161065692840190611e55565b600080610e2e83610890565b9050806001600160a01b0316846001600160a01b03161480610e7557506001600160a01b0380821660009081526005602090815260408083209388168352929052205460ff165b80610e995750836001600160a01b0316610e8e84610519565b6001600160a01b0316145b949350505050565b6001600160a01b03831615610ef85760405162461bcd60e51b815260206004820152601c60248201527f596f752063616e2774207472616e736665722074686973204e46542e0000000060448201526064016105b5565b6106568383836112cb565b610976813361143c565b610f178282610bfb565b60008281526009602052604090206106569082610c81565b610f398282611495565b600082815260096020526040902061065690826114fc565b6106e0828260405180602001604052806000815250611511565b6007546001600160a01b03163314610a115760405162461bcd60e51b815260206004820181905260248201527f4f776e61626c653a2063616c6c6572206973206e6f7420746865206f776e657260448201526064016105b5565b600780546001600160a01b038381166001600160a01b0319831681179093556040519116919082907f8be0079c531659141344cd1fd0a4f28419497f9722a3daafe3b4186f6b6457e090600090a35050565b61102081611544565b600a6000815461102f90612412565b9091555050565b6000610aba8383611584565b816001600160a01b0316836001600160a01b031614156110a45760405162461bcd60e51b815260206004820152601960248201527f4552433732313a20617070726f766520746f2063616c6c65720000000000000060448201526064016105b5565b6001600160a01b03838116600081815260056020908152604080832094871680845294825291829020805460ff191686151590811790915591519182527f17307eab39ab6107e8899845ad3d59bd9653f200f220920489ca2b5937696c31910160405180910390a3505050565b61111c848484610ea1565b611128848484846115ae565b610b385760405162461bcd60e51b81526004016105b590612429565b606061114f82610cbb565b600082815260066020526040812080546111689061230d565b80601f01602080910402602001604051908101604052809291908181526020018280546111949061230d565b80156111e15780601f106111b6576101008083540402835291602001916111e1565b820191906000526020600020905b8154815290600101906020018083116111c457829003601f168201915b5050505050905060006111ff60408051602081019091526000815290565b9050805160001415611212575092915050565b81511561124457808260405160200161122c92919061247b565b60405160208183030381529060405292505050919050565b610e99846116ac565b6000610481825490565b600081815260018301602052604081205461129e57508154600181810184556000848152602080822090930184905584548482528286019093526040902091909155610481565b506000610481565b60006001600160e01b03198216637965db0b60e01b148061048157506104818261171f565b826001600160a01b03166112de82610890565b6001600160a01b0316146113045760405162461bcd60e51b81526004016105b5906124aa565b6001600160a01b0382166113665760405162461bcd60e51b8152602060048201526024808201527f4552433732313a207472616e7366657220746f20746865207a65726f206164646044820152637265737360e01b60648201526084016105b5565b611373838383600161176f565b826001600160a01b031661138682610890565b6001600160a01b0316146113ac5760405162461bcd60e51b81526004016105b5906124aa565b600081815260046020908152604080832080546001600160a01b03199081169091556001600160a01b0387811680865260038552838620805460001901905590871680865283862080546001019055868652600290945282852080549092168417909155905184937fddf252ad1be2c89b69c2b068fc378daa952ba7f163c4a11628f55a4df523b3ef91a4505050565b6114468282610ac1565b6106e0576114538161177b565b61145e83602061178d565b60405160200161146f9291906124ef565b60408051601f198184030181529082905262461bcd60e51b82526105b591600401611faf565b61149f8282610ac1565b156106e05760008281526008602090815260408083206001600160a01b0385168085529252808320805460ff1916905551339285917ff6391f5c32d9c69d2a47ea670b442974b53935d1edc7fd64eb21e047a839171b9190a45050565b6000610aba836001600160a01b038416611929565b61151b8383611a1c565b61152860008484846115ae565b6106565760405162461bcd60e51b81526004016105b590612429565b61154d81611bb5565b600081815260066020526040902080546115669061230d565b15905061097657600081815260066020526040812061097691611ed9565b600082600001828154811061159b5761159b612564565b9060005260206000200154905092915050565b60006001600160a01b0384163b156116a157604051630a85bd0160e11b81526001600160a01b0385169063150b7a02906115f290339089908890889060040161257a565b6020604051808303816000875af192505050801561162d575060408051601f3d908101601f1916820190925261162a918101906125b7565b60015b611687573d80801561165b576040519150601f19603f3d011682016040523d82523d6000602084013e611660565b606091505b50805161167f5760405162461bcd60e51b81526004016105b590612429565b805181602001fd5b6001600160e01b031916630a85bd0160e11b149050610e99565b506001949350505050565b60606116b782610cbb565b60006116ce60408051602081019091526000815290565b905060008151116116ee5760405180602001604052806000815250610aba565b806116f884611c58565b60405160200161170992919061247b565b6040516020818303038152906040529392505050565b60006001600160e01b031982166380ac58cd60e01b148061175057506001600160e01b03198216635b5e139f60e01b145b8061048157506301ffc9a760e01b6001600160e01b0319831614610481565b610b3884848484611cf5565b60606104816001600160a01b03831660145b6060600061179c8360026125d4565b6117a79060026125f3565b67ffffffffffffffff8111156117bf576117bf612021565b6040519080825280601f01601f1916602001820160405280156117e9576020820181803683370190505b509050600360fc1b8160008151811061180457611804612564565b60200101906001600160f81b031916908160001a905350600f60fb1b8160018151811061183357611833612564565b60200101906001600160f81b031916908160001a90535060006118578460026125d4565b6118629060016125f3565b90505b60018111156118da576f181899199a1a9b1b9c1cb0b131b232b360811b85600f166010811061189657611896612564565b1a60f81b8282815181106118ac576118ac612564565b60200101906001600160f81b031916908160001a90535060049490941c936118d381612412565b9050611865565b508315610aba5760405162461bcd60e51b815260206004820181905260248201527f537472696e67733a20686578206c656e67746820696e73756666696369656e7460448201526064016105b5565b60008181526001830160205260408120548015611a1257600061194d60018361260b565b85549091506000906119619060019061260b565b90508181146119c657600086600001828154811061198157611981612564565b90600052602060002001549050808760000184815481106119a4576119a4612564565b6000918252602080832090910192909255918252600188019052604090208390555b85548690806119d7576119d7612622565b600190038181906000526020600020016000905590558560010160008681526020019081526020016000206000905560019350505050610481565b6000915050610481565b6001600160a01b038216611a725760405162461bcd60e51b815260206004820181905260248201527f4552433732313a206d696e7420746f20746865207a65726f206164647265737360448201526064016105b5565b6000818152600260205260409020546001600160a01b031615611ad75760405162461bcd60e51b815260206004820152601c60248201527f4552433732313a20746f6b656e20616c7265616479206d696e7465640000000060448201526064016105b5565b611ae560008383600161176f565b6000818152600260205260409020546001600160a01b031615611b4a5760405162461bcd60e51b815260206004820152601c60248201527f4552433732313a20746f6b656e20616c7265616479206d696e7465640000000060448201526064016105b5565b6001600160a01b038216600081815260036020908152604080832080546001019055848352600290915280822080546001600160a01b0319168417905551839291907fddf252ad1be2c89b69c2b068fc378daa952ba7f163c4a11628f55a4df523b3ef908290a45050565b6000611bc082610890565b9050611bd081600084600161176f565b611bd982610890565b600083815260046020908152604080832080546001600160a01b03199081169091556001600160a01b0385168085526003845282852080546000190190558785526002909352818420805490911690555192935084927fddf252ad1be2c89b69c2b068fc378daa952ba7f163c4a11628f55a4df523b3ef908390a45050565b60606000611c6583611d7d565b600101905060008167ffffffffffffffff811115611c8557611c85612021565b6040519080825280601f01601f191660200182016040528015611caf576020820181803683370190505b5090508181016020015b600019016f181899199a1a9b1b9c1cb0b131b232b360811b600a86061a8153600a8504945084611ce857611ced565b611cb9565b509392505050565b6001811115610b38576001600160a01b03841615611d3b576001600160a01b03841660009081526003602052604081208054839290611d3590849061260b565b90915550505b6001600160a01b03831615610b38576001600160a01b03831660009081526003602052604081208054839290611d729084906125f3565b909155505050505050565b60008072184f03e93ff9f4daa797ed6e38ed64bf6a1f0160401b8310611dbc5772184f03e93ff9f4daa797ed6e38ed64bf6a1f0160401b830492506040015b6d04ee2d6d415b85acef81000000008310611de8576d04ee2d6d415b85acef8100000000830492506020015b662386f26fc100008310611e0657662386f26fc10000830492506010015b6305f5e1008310611e1e576305f5e100830492506008015b6127108310611e3257612710830492506004015b60648310611e44576064830492506002015b600a83106104815760010192915050565b828054611e619061230d565b90600052602060002090601f016020900481019282611e835760008555611ec9565b82601f10611e9c57805160ff1916838001178555611ec9565b82800160010185558215611ec9579182015b82811115611ec9578251825591602001919060010190611eae565b50611ed5929150611f0f565b5090565b508054611ee59061230d565b6000825580601f10611ef5575050565b601f01602090049060005260206000209081019061097691905b5b80821115611ed55760008155600101611f10565b6001600160e01b03198116811461097657600080fd5b600060208284031215611f4c57600080fd5b8135610aba81611f24565b60005b83811015611f72578181015183820152602001611f5a565b83811115610b385750506000910152565b60008151808452611f9b816020860160208601611f57565b601f01601f19169290920160200192915050565b602081526000610aba6020830184611f83565b600060208284031215611fd457600080fd5b5035919050565b80356001600160a01b0381168114611ff257600080fd5b919050565b6000806040838503121561200a57600080fd5b61201383611fdb565b946020939093013593505050565b634e487b7160e01b600052604160045260246000fd5b600067ffffffffffffffff8084111561205257612052612021565b604051601f8501601f19908116603f0116810190828211818310171561207a5761207a612021565b8160405280935085815286868601111561209357600080fd5b858560208301376000602087830101525050509392505050565b600082601f8301126120be57600080fd5b610aba83833560208501612037565b600080604083850312156120e057600080fd5b82359150602083013567ffffffffffffffff8111156120fe57600080fd5b61210a858286016120ad565b9150509250929050565b60008060006060848603121561212957600080fd5b61213284611fdb565b925061214060208501611fdb565b9150604084013590509250925092565b60006020828403121561216257600080fd5b610aba82611fdb565b6000806040838503121561217e57600080fd5b8235915061218e60208401611fdb565b90509250929050565b6000806000606084860312156121ac57600080fd5b6121b584611fdb565b9250602084013563ffffffff811681146121ce57600080fd5b9150604084013567ffffffffffffffff8111156121ea57600080fd5b6121f6868287016120ad565b9150509250925092565b6000806040838503121561221357600080fd5b50508035926020909101359150565b801515811461097657600080fd5b6000806040838503121561224357600080fd5b61224c83611fdb565b9150602083013561225c81612222565b809150509250929050565b6000806000806080858703121561227d57600080fd5b61228685611fdb565b935061229460208601611fdb565b925060408501359150606085013567ffffffffffffffff8111156122b757600080fd5b8501601f810187136122c857600080fd5b6122d787823560208401612037565b91505092959194509250565b600080604083850312156122f657600080fd5b6122ff83611fdb565b915061218e60208401611fdb565b600181811c9082168061232157607f821691505b6020821081141561234257634e487b7160e01b600052602260045260246000fd5b50919050565b60006020828403121561235a57600080fd5b8151610aba81612222565b6020808252601590820152742932b9ba3934b1ba32b2103a379030b236b4b7399760591b604082015260600190565b6020808252602d908201527f4552433732313a2063616c6c6572206973206e6f7420746f6b656e206f776e6560408201526c1c881bdc88185c1c1c9bdd9959609a1b606082015260800190565b634e487b7160e01b600052601160045260246000fd5b600060001982141561240b5761240b6123e1565b5060010190565b600081612421576124216123e1565b506000190190565b60208082526032908201527f4552433732313a207472616e7366657220746f206e6f6e20455243373231526560408201527131b2b4bb32b91034b6b83632b6b2b73a32b960711b606082015260800190565b6000835161248d818460208801611f57565b8351908301906124a1818360208801611f57565b01949350505050565b60208082526025908201527f4552433732313a207472616e736665722066726f6d20696e636f72726563742060408201526437bbb732b960d91b606082015260800190565b7f416363657373436f6e74726f6c3a206163636f756e7420000000000000000000815260008351612527816017850160208801611f57565b7001034b99036b4b9b9b4b733903937b6329607d1b6017918401918201528351612558816028840160208801611f57565b01602801949350505050565b634e487b7160e01b600052603260045260246000fd5b6001600160a01b03858116825284166020820152604081018390526080606082018190526000906125ad90830184611f83565b9695505050505050565b6000602082840312156125c957600080fd5b8151610aba81611f24565b60008160001904831182151516156125ee576125ee6123e1565b500290565b60008219821115612606576126066123e1565b500190565b60008282101561261d5761261d6123e1565b500390565b634e487b7160e01b600052603160045260246000fdfea264697066735822122031e091ea720fb892897e5f9e0af5425176d3d7ecca1ce8343920417dc8a42afc64736f6c634300080b0033",
  "linkReferences": {},
  "deployedLinkReferences": {}
}